:020000040800F2
:10000000480B00205102000879370008F12C000845
:1000100035350008550C0008D544000800000000E4
:100020000000000000000000000000004D3D00083E
:10003000590C000800000000493D0008813D0008FF
:100040006B0200086B0200086B0200086B020008DC
:100050006B0200086B0200086B0200086B020008CC
:100060006B0200086B0200086B0200086B020008BC
:100070006B0200086B0200086B0200086B020008AC
:100080006B0200086B0200086B0200080000000011
:100090000000000000000000000000006B020008EB
:1000A0006B020008393E00086B0200086B02000872
:1000B0006B0200086B0200086B0200086B0200086C
:1000C0006B0200086B0200086B0200086B0200085C
:1000D0006B0200086B020008C54400080000000025
:1000E0006B0200086B0200086B02000800000000B1
:1000F0000000000000000000000000006B0200088B
:10010000000000006B0200086B0200086B02000890
:1001100000000000000000000000000000000000DF
:100120006B0200086B0200086B0200086B020008FB
:100130006B0200080000000000000000000000004A
:100140000000000000000000000000006B0200083A
:100150006B0200086B0200086B0200086B020008CB
:100160006B0200086B0200080000000000000000A5
:10017000000000000000000000000000000000007F
:10018000000000006B0200080000000000000000FA
:100190006B0200086B02000800F002F800F049F85A
:1001A0000AA090E8000C82448344AAF10107DA45D2
:1001B00001D100F03EF8AFF2090EBAE80F0013F0DB
:1001C000010F18BFFB1A43F001031847B85B00008A
:1001D000D85B0000103A24BF78C878C1FAD852071B
:1001E00024BF30C830C144BF04680C6070470000B1
:1001F0000023002400250026103A28BF78C1FBD830
:10020000520728BF30C148BF0B607047662905F010
:100210000885002070471FB505F0F1FC00F0A4FB35
:1002200004000020002104F007FFE0601FBD10B5AE
:1002300010BD00F099FC1146FFF7EDFF04F088F9BE
:1002400000F0B7FC03B4FFF7F2FF03BC00F0FAFCC8
:100250000948804709480047FEE7FEE7FEE7FEE75A
:10026000FEE7FEE7FEE7FEE7FEE7FEE70448054996
:10027000054A064B70470000253E0008990100081A
:1002800048050020480B00204807002048070020B0
:1002900053EA020C00F069802DE9F04B4FF00006A4
:1002A000002B1FBFB3FA83F503FA05F424FA05F611
:1002B0005E4012BF1643B2FA82F502FA05F4C5F1A8
:1002C00020051EBF22FA05FC44EA0C04203556EA3C
:1002D000044C4FEA144418BF641C4FF000084FF060
:1002E0000009904271EB030C39D3002919BFB1FA10
:1002F00081F701FA07F6B0FA80F700FA07F6C7F1BE
:1003000020071EBF20FA07FC46EA0C062037B6FB82
:10031000F4FCA7EB0507103F07F01F0BCBF12006FD
:100320002CFA06F60CFA0BFB44BFB3460026202F2E
:10033000A4BF5E464FF0000B5BEA060C08BF4FF00F
:10034000010B19EB0B0948EB0608ABFB027C06FB23
:1003500002CC0BFB03CCC01B71EB0C01C1E70B46BD
:10036000024641464846BDE8F08B13B5084318BF26
:100370004FF0FF300146AFF30080BDE81C407047EE
:100380000FB41CB5084B06AA7B446946009005983B
:1003900000F0D1FA04460020694600F0DFFA20465A
:1003A0001CBC5DF814FB0000D10500002DE9F047EE
:1003B0004FF0000A89460446C0F820A02046E168B4
:1003C0008847002876D0252806D0D4E90121904717
:1003D000206A401C2062F1E7E1682046002588473A
:1003E000C4F81CA006460027C4F818A02A2E09D07D
:1003F000304604F019FE38B304EB8708303EC8F8E5
:10040000186019E059F8041B204604EB870291613B
:10041000E1688847012F064618D1E069002820DAF4
:1004200025F020051DE0D8F8180000EB800006EB51
:1004300040003038C8F818002046E1688847064672
:1004400004F0F2FD0028EED1012F0AD02E2E08D1A3
:100450002046E16888477F1C0646022F45F02005AC
:10046000C4DBA069002803DA404245F00105A06121
:10047000E80701D025F01005B6B1A6F14100192812
:1004800002D8203645F400654A46314620462560AC
:100490004D46FFF7BBFE58B1012806D0ED1D25F0F3
:1004A000070000F1080989E704E005F1040985E780
:1004B00030468AE7206ABDE8F0874FF0000200B5B9
:1004C000134694469646203922BFA0E80C50A0E877
:1004D0000C50B1F12001BFF4F7AF090728BFA0E825
:1004E0000C5048BF0CC05DF804EB890028BF40F8F1
:1004F000042B08BF704748BF20F8022B11F0804F33
:1005000018BF00F8012B70477047704770472DE9FE
:10051000FF4F0C461E464FF0FF378BB0D2E900016B
:10052000DDF860800A908A46C1F30A5505B93D4658
:10053000002108464FF00000BAF1000F00F440001F
:1005400005DA00EB80004FF4400101EA50004FEA69
:100550009059B9F1010F00DDB9460A9850EA4A00F6
:100560000ED044F61050A5F2FF3545432F14B8F1D4
:10057000000F1ED07542291E1EDDC9F100021CE0CD
:10058000B8F1010F4FF0000001D0302103E0F24339
:1005900005E02154401CB042FBDB30460022002124
:1005A00021540B99C1F80880C1E900200FB0BDE8C3
:1005B000F08FBD1B6D1CDEE74A4600DA694206A8D3
:1005C00000F05CFA06AB93E8070003AB83E8070092
:1005D00050460A9904F048F98DE80700A0F500504C
:1005E0001F3800900398002D0ADD42F21F014A4691
:1005F0000844002303A90390684604F0B1FB09E016
:10060000A0F500504A461F38002303A9039068460E
:1006100004F0BBFB8DE807000004000C03D04FF092
:10062000FF30410800E01046B8F1000F03D000226F
:10063000009215461EE0751E05D400F099F930327F
:1006400062556D1EF9D5B3460122084302D000223F
:100650007F1C04E02078302801D100227F1E002A70
:10066000099784D01DE0112D07DA00F081F93032AE
:1006700062556D1C50EA0102F5D1084302D0009882
:10068000C8B10EE00021681E05E0235C625C635483
:100690002254401E491C8142F7DBAB46A81B401E7A
:1006A0000990002004F80B000B98099AC0F8088004
:1006B000C0E9002B7AE711264FF0000857E72DE933
:1006C000F04F88460446D21D22F0070191B0D1E9CF
:1006D0000001CDE90A0104F08FFC02460B98C00F1F
:1006E00001D02D2007E02068810701D52B2002E0F2
:1006F000202101EAC000032A099001D0072A05DB66
:1007000003464146204600F079F90BE12078800647
:1007100001D5E06900E00620B8F1650F814606D0FA
:10072000B8F1660F18D0B8F1670F70D131E0002032
:10073000B9F1110F009001DB112301E009F1010370
:100740000AAA01A90CA8FFF7E2FEDDE90C70002659
:1007500009F10105834647E001204B4600904FF028
:1007600000470AAA01A90CA8FFF7D1FEDDE90DB0E8
:100770000C995D46002610B909F101000D18B9EB7E
:10078000050003D4C0F1FF3609F10105A5EB09000E
:100790002BE0B9F1010F01DA4FF001090020B9F1A6
:1007A000110F0090484601DD112300E003460AAA1C
:1007B00001A90CA8FFF7ABFEDDE90C704D46002641
:1007C0008346207800070AD4AB4500DA5D4601A8CD
:1007D000012D04DD411911F8011C302907D04F45C6
:1007E00002DA17F1040F04DA012082460FE06D1ED1
:1007F000EEE7002F02DCED1B3E4403E0781CA8422C
:1008000000DD7D1CB81B00F1010A4FF00047207885
:10081000000703D4AA4501DB4FF0FF3A0021B7F1EE
:10082000004F0DF143088DF8431024D002202B23F4
:10083000002F01DA7F422D230A21021EA0F10100C0
:1008400000DC5FB197FBF1FC97FBF1F201FB1C7C34
:1008500017460CF1300C08F801CDEEE7A8F10100C5
:1008600003702188090501D5452100E06521A0F12B
:10087000010800F8011C09980FA9A1EB0807FF1D4A
:1008800000B10120411901EBEA70A1693844081A4E
:10089000401EA0612078C00602D42046AFF300803D
:1008A000099828B1D4E901219047206A401C2062B0
:1008B0002078C00622D52046AFF300801EE0002E2F
:1008C00004DBB34502DD01A8805D00E03020D4E9FF
:1008D00001219047206A401C2062761CAAF1010089
:1008E0005FEA000A0AD100F03FF8C0680168405C86
:1008F000D4E901219047206A401C2062281EA5F1FE
:100900000105DCDC07E0D4E9012118F8010B904770
:10091000206A401C2062381EA7F10107F3DC204644
:10092000AFF30080032011B041E6000001694A1CCA
:1009300002610878704700B58FB0CDE90131002120
:10094000059105497944CDE9031011466846FFF742
:100950002DFD0FB000BD0000E5FFFFFF0A6802F8A3
:10096000010B0A6070470000004870473800002003
:1009700030B5B0F10A0271F100034FEA900E4EEA71
:10098000817EB0EB0E0061EB91014FEA101E4EEA42
:10099000017E10EB0E0041EB11114FEA102E4EEAD2
:1009A000016E10EB0E0041EB11214FEA104E4EEAA2
:1009B000014E10EB0E0041EB1141401841F10001D6
:1009C0004FEAD00040EA41704FEAD1014FEA81047A
:1009D00044EA907410EB800544EB01046D1944EB7C
:1009E0000404521BA3414FF0000348BF0A3200D554
:1009F00030BD401C41F1000130BD00002DE9F04147
:100A00001F46044603260168072A01F4006004DB40
:100A100008B116A505E016A503E008B115A500E08C
:100A200015A521F010002060A069C01EA0610FB1C3
:100A3000401EA0612046AFF300804FB1D4E90121F0
:100A400038469047206A401C2062C01C206206E0A5
:100A5000206AFAE7D4E9012115F8010B9047761EC8
:100A6000F8D22046AFF30080BDE8F0814E414E0041
:100A70006E616E00494E4600696E66002DE9F047D2
:100A8000814616468AB0354878440DC88DE80D0079
:100A900032487844801C03AC0DC884E80D0041F650
:100AA0009B300844372190FBF1F290FBF1F5A5F162
:100AB000800501FB12041B3C02D56442012000E0CA
:100AC0000020DFF898A080460027FA44AAF1BE0A69
:100AD0000EE0E0070AD03246684607EB47010123E3
:100AE0000AEB810104F051F98DE8070064107F1CC6
:100AF000002CEED1194F7F44AE3F19E0E80715D026
:100B000007EB04100DF1180A90E80E008AE80E00B9
:100B1000C068F04201D1981908903246012306A915
:100B200003A804F032F903AB83E807006D10641CDE
:100B3000002DE3D14FF0010332466946B8F1000FB2
:100B400003A802D004F00CF901E004F01EF9C9E991
:100B50000001C9F808200AB0BDE8F087185200006B
:100B600000487047180000207546FFF7F9FFAE46B1
:100B700005006946534620F00700854618B020B5A9
:100B8000FFF774FBBDE820404FF000064FF0000770
:100B90004FF000084FF0000BAC46ACE8C009ACE8E1
:100BA000C009ACE8C009ACE8C00921F007018D46D6
:100BB000704710B50446AFF300802046BDE81040F2
:100BC000FFF740BB0000000030B44FF0013C50F88C
:100BD000042B51F8043BCCFA52F4D51A20D1FCB9BD
:100BE00050F8042B51F8043BCCFA52F4D51A17D123
:100BF000B4B950F8042B51F8043BCCFA52F4D51A8E
:100C00000ED16CB950F8042B51F8043BCCFA52F4D5
:100C1000D51A05D1002CDAD030BC4FF00000704757
:100C200029BAB1FA81F111F01801D1F12000844004
:100C3000F2D1CA40CB4012F0FF0213F0FF0330BCE8
:100C4000D01A704701491820ABBEFEE7260002000B
:100C500070470000FEE700007047000072B600BF5A
:100C6000FEE7000010B52DED088BB8EE089AB8EE3F
:100C700000AAF9EE000AB0EE491AF0EE4A1A04464C
:100C8000B0EE408A03F058FABFEE00BA84ED000AD5
:100C9000B0EE480AF0EE490AB0EE4A1AF0EE4B1AEE
:100CA00003F04AFA9FED249A84ED010AB0EE480A57
:100CB000F0EE4A0AB0EE4B1AF0EE491A03F03CFA95
:100CC000B7EE00AA84ED020AB0EE480AF0EE4B0A35
:100CD000B0EE491AF0EE4A1A03F02EFAB0EE00BA5E
:100CE00084ED030AB0EE480AF0EE490AB0EE4A1A63
:100CF000F0EE4B1A03F020FAB0EE089A84ED040AE5
:100D0000B0EE480AF0EE4A0AB0EE4B1AF0EE491A7D
:100D100003F012FA84ED050AF1EE001AB0EE480A6B
:100D2000F0EE4B0AB0EE491A03F006FA84ED060A1B
:100D3000BDEC088B10BD00BF000000002DE9F041A4
:100D40002DED028B90ED001A90ED012A80EE010A44
:100D500080EE821AB0EE088A044620EE082AB4EE2D
:100D6000482A21EE081AF1EE10FAB0EE480A0ADC21
:100D7000B8EE083AB4EE432AB0EE420AF1EE10FAA9
:100D8000B8BFB0EE430AB4EE481AF1EE10FA0ADC2E
:100D9000B8EE082AB4EE421AB0EE418AF1EE10FA2B
:100DA000B8BFB0EE428A04F11400FFF75BFF04F114
:100DB0003005B0EE480A2846FFF754FF04F14C0016
:100DC0005421FFF77AFB4FF0000C4FF0000E06E0C5
:100DD0000EF1010EBEF1070F0CF1070C54D004EB1D
:100DE0008E0090ED050AB5EE400AF1EE10FAEFDD47
:100DF00000F114080023604605E000BF04331C2BFB
:100E000000F10100E4D0E91891ED000AB5EE400AC6
:100E1000F1EE10FAF2DD98ED001AB4EE401AF1EEA0
:100E200010FAB8BFB0EE410AD4E92816D4F8A820C9
:100E30000956365604EB810797ED161A0336B4EEC1
:100E4000410A1156F1EE10FAC4BF07F1580282EDC3
:100E5000000A04EB860696ED1A1A0331B4EE410A35
:100E6000F1EE10FAC4BF06F1680282ED000A04EB4D
:100E7000810191ED211AB4EE410AF1EE10FAC4BFDE
:100E8000843181ED000AB9E745F668509FED300ADC
:100E9000C0F6000004F14801021F0720B0EE401A1E
:100EA000B0EE402AB0EE403AB0EE404AB0EE405AC2
:100EB00092ED016A91ED017A043267EE060A34EE92
:100EC000204AD1ED080A35EE075A26EE207A32EE96
:100ED000072A91ED0F7A33EE203A26EE076A30EEBC
:100EE000060A31EE071A04310138E1D19FED186A84
:100EF000B5EE405AF1EE10FAB0EE467A05DD84EE1A
:100F0000054A94ED025A24EE057AB5EE403AF1EE28
:100F100010FAB0EE464A84ED2B7A05DD82EE032A04
:100F200094ED033A22EE034AB5EE401AF1EE10FAC0
:100F300084ED2C4A05DD80EE010A94ED041A20EEC2
:100F4000016A84ED2D6ABDEC028BBDE8F08100BF23
:100F50000000000080B500F1A00C80EC050A8CE8D0
:100F60000E004C305421FFF7A8FA80BD70B5866D95
:100F7000044600F035F994F83510022925D10546CC
:100F80002068216C026822F016020260426922F099
:100F90008002426109B9A16C19B1016821F0080110
:100FA0000160016821F00101016000BF2068006854
:100FB000C0070ED000F014F9401B0628F6D32020FD
:100FC0006065032084F835000CE080206065012016
:100FD00008E0E06D3F2101FA00F0B060012084F8E4
:100FE00035000020002184F8341070BD90F83510D1
:100FF000022909D1052180F835100068016821F027
:101000000101016000207047802141650120704787
:10101000B0B5044600F0E4F8054640F20C00C2F218
:1010200000000078611C18BF044400BF00F0D8F82D
:10103000401BA042FAD3B0BD2DE9F04F83B000F1C0
:101040003E4202F1FF724FEAB22241F200070192E2
:10105000C4F2020707224FF0010E00254FF0000AEC
:101060004FF00008B84208BF042200920AE000BF17
:1010700008F101080AF1040AB8F1100F05F10205A0
:1010800000F0A4800C680EFA08FB14EA0B09EFD0FC
:101090004C6804F0030CACF1010EBEF1010F11D845
:1010A0000322876802FA05F6CA68B743AA403A43A2
:1010B00082604268C4F3001722EA0B0207FA08F7BD
:1010C0003A434260BCF1030F1CD0C26803238E6810
:1010D00003FA05F7BA4306FA05F73A43BCF1020FE3
:1010E000C2600FD16FF0030202EA580202440AF014
:1010F0001C060F23176A03FA06F40B69A743B340D3
:101100003B431362026803234F68AB409A4307F0E6
:101110000303AB401A4317F4403F4FF0010E026047
:10112000A6D0002243F644030292C4F202031A68D6
:1011300043F6004442F480421A601A68C4F2010483
:1011400002F480420292029A28F003024FF6084B02
:101150002244CFF6FF7B52F80B300AF00C070F2623
:10116000BE4023EA060C019B009E042B38BF1E469E
:1011700006FA07F747EA0C0342F80B30A2684B68FF
:1011800042EA090743F60C4CDE0258BF22EA09077F
:10119000A760C4F2010CDCF800209E0242EA0907B5
:1011A00058BF22EA0907CCF8007062689E0342EA41
:1011B000090758BF22EA090767602268DB0342EA91
:1011C000090358BF22EA0903236051E703B0BDE8D1
:1011D000F08F0000002A08BF0904816170470000F9
:1011E00040F24050C2F200000068704770B5B0B3E2
:1011F000044690F83D0028B9002084F83C002046C1
:1012000000F060FA242084F83D002068016821F095
:1012100001010160016841F400410160016821F4AD
:101220000041016000F0C4FB48F28041C0F21E01A1
:1012300040F60012666888424FF00001C0F23D029D
:1012400048F2A16C4FF0000338BF01219042C0F278
:10125000010C38BF0123664538BF0B460BB1012096
:1012600070BD4DF68361C4F21B31A0FB01122168F1
:10127000930C4D68664525F03F0545EA92424A6069
:101280000A6A22F03F0C09D34FF496725A4344F68F
:10129000D353C1F26203A2FB03239B095A1C42EA07
:1012A0000C020A6248F2A063CA69C0F201039E42BE
:1012B0004CF6FF7322EA030C0AD801387200B0FB27
:1012C000F2F001306FF31F30042898BF04202BE0A8
:1012D000A368A0F1010E9BB119207043BEFBF0F092
:1012E0000422013062F31F30000512D09BB1192097
:1012F0007043BEFBF0F00422013062F31F3011E0B6
:1013000006EB4600BEFBF0F001306FF31F30000526
:10131000ECD1012008E006EB4600BEFBF0F0013006
:101320006FF31F3040F4004040EA0C00C8610868C9
:10133000D4E9072320F0C0001043184308608868F0
:1013400048F2FF3204F10C0690434CCE1843104390
:10135000A5698860C86820F0FF0030432843C86052
:10136000086840F00100086000202021206484F813
:101370003D10206384F83E0070BD00002DE9F0436D
:1013800083B01F4616460D460446FFF729FF94F822
:101390003D1020290FD102218146C0F210012046C4
:1013A00001221923CDF8009001F0D8FD18B994F866
:1013B0003C00012803D1022003B0BDE8F0830121E5
:1013C000226884F83C101368DDE90B080A99DB07F2
:1013D00003D1136843F001031360136823F400631F
:1013E0001360222284F83D20402284F83E2000220F
:1013F000226461626085608D294620850020CFF6D9
:10140000FF70E062204632463B46CDF80080CDF8C2
:10141000049001F087FC18B1012003B0BDE8F0830F
:10142000208D022806D0012810D000BB0020029099
:10143000206812E02068016821F480610160016881
:1014400041F4006101600021029113E0206801680D
:1014500021F480610160002102914169029181695A
:1014600002910299016841F40071016007E00020D7
:101470000290206841690291806902900298258D4E
:10148000002D7DD00427C0F201070DE0096901702D
:10149000606A218D01306062481E2085608D0138B0
:1014A0006085258D002D6BD02046032D0CD8012D95
:1014B00029D141464A4601F0F5FD0028ACD120680B
:1014C000616A00690870E3E741464A4601F0EAFDB7
:1014D0000028A1D12068616A00690870606A228DC5
:1014E0000130013A606222852168638D013B63858A
:1014F0004B695B07D5D592B2032AC7D10A6822F49B
:1015000080620A60C2E7394600224346CDF8009067
:1015100001F024FD022D1BD000287FF47DAF206850
:10152000616A0268434622F4806202600069002218
:101530000870606A218D01306062481E2085608DD0
:101540003946013860852046CDF8009001F006FD4F
:1015500000287FF461AF2068616A026842F400727B
:10156000026000690870606A411C6162218D226816
:1015700001392185618D013961851169417087E7E4
:10158000202084F83D00002084F83E0084F83C00D0
:1015900003B0BDE8F08300002DE9F04383B0994625
:1015A00016460F460446FFF71BFE94F83D1020290F
:1015B0000ED102210546C0F2100120460122192356
:1015C000009501F0CBFC18B994F83C00012803D138
:1015D000022003B0BDE8F0830121226884F83C10AA
:1015E0001368DDE90B080A99DB0703D1136843F0A0
:1015F00001031360136823F400631360212284F84D
:101600003D20402284F83E200022226461626085F1
:10161000608D394620850020CFF6FF70E0622046BD
:1016200032464B46CDF80080019501F001FC30B305
:10163000012003B0BDE8F083204641462A4601F070
:101640006DFD28BB606A2168034613F8012B0A610F
:10165000228D6362571E2785638D3F04A3F101032A
:1016600063854B6918BF13F0040308D04378023038
:101670000B616062901E2085608D01386085208D31
:101680000028D9D1204641462A4601F031FC40B11C
:10169000206C0428CCD12068016841F400710160FD
:1016A000C6E72068016841F400710160202084F8D9
:1016B0003D00002084F83E0084F83C0003B0BDE803
:1016C000F0830000B0B586B000240594CDE9034452
:1016D00045F200410068C4F200018842029401947E
:1016E00001D006B0B0BD43F630050094C4F2020547
:1016F000286840F002002860286800F0020000908E
:1017000000984FF4407001901220CDE902040320AC
:1017100004900420059001F5D83001A9FFF78CFC56
:101720000094286940F400102861286900F4001032
:101730000090009806B0B0BD40F20C0040F240515D
:10174000C2F20000C2F2000100780A68104408608A
:101750007047000080B543F60040C4F20200016803
:1017600041F400710160016841F480610160016829
:1017700041F480710160032000F060F80F2000F058
:1017800005F800F02BF8002080BD0000B0B540F255
:101790000C02C2F2000240F200011278C2F2000113
:1017A0004FF47A730968B3FBF2F20446B1FBF2F12D
:1017B000084600F0F7FA0F2C4FF001050CD858B985
:1017C0004FF0FF3021460022002500F027F840F2BC
:1017D0001000C2F2000004602846B0BD82B00020B4
:1017E00043F640010190C4F202014A6842F480428B
:1017F0004A604A6802F480420192019A00900868A7
:1018000040F080500860086800F080500090009818
:1018100002B0704780B502F05FFE80BD70B514461F
:101820000D46064602F068FE2946224601F0A6FF54
:101830000146304602F068FE70BD000080B502F03F
:1018400075FE80BD2DE9F041002800F08B8043F645
:101850000808C4F202080446D8F8F8030D4600F060
:101860000700884207D288F8F853D8F8F80300F048
:101870000700A84276D12068810717D5410705D512
:10188000D8F8001041F4E051C8F80010010705D560
:10189000D8F8001041F46041C8F80010D8F80010E2
:1018A000A26821F0F0011143C8F80010C0073FD131
:1018B000D8F8F80300F00700A84207D988F8F853D1
:1018C000D8F8F80300F00700A8424BD12068410780
:1018D00007D5D8F80010E26821F4E0511143C8F8A8
:1018E0000010000708D5D8F80000216920F46040F6
:1018F00040EAC100C8F8000000F07EF8D8F80010F7
:1019000045F6BC42C1F30311C0F60002515C40F23F
:10191000000220FA01F140F21000C2F2000000685B
:10192000C2F200021160FFF731FF0020BDE8F08134
:101930006068811E022907D258F8081C89015CBF23
:101940000120BDE8F08110E0012807D158F8081CFB
:1019500089035CBF0120BDE8F08106E058F8081C4F
:10196000890702D40120BDE8F081D8F8001021F0E9
:1019700003010843C8F80000FFF732FC064641F2B5
:10198000883700BFD8F80000616800F00C00B0EBA9
:10199000810F8DD0FFF724FC801BB842F2D90320C1
:1019A000BDE8F08140F20000C2F20000006870471C
:1019B00080B5FFF7F7FF43F60801C4F2020109689A
:1019C00045F6CC42C1F38221C0F60002515CC8400A
:1019D00080BD000080B5FFF7E5FF43F60801C4F2C3
:1019E0000201096845F6CC42C1F34231C0F600025B
:1019F000515CC84080BD000010B543F60404C4F239
:101A00000204606800F00C0008280AD0042819BFFE
:101A100042F20040C0F2F40047F64000C0F27D10F0
:101A200010BD206821682368490247F64001C0F2D2
:101A30007D1100F03F02C3F388105CBF42F2004109
:101A4000C0F2F401A1FB00010023FEF721FC216894
:101A50000222C1F3014102EB4101B0FBF1F010BDE4
:101A60002DE9F04182B0002800F09F800446007804
:101A700043F60006C007C4F2020641D0B06800F089
:101A80000C00042805D13068800339D56068B8BBE4
:101A90008BE0B06800F00C00082802D170684002AA
:101AA000F1D46568B5F5803F06D03068B5F5A02F54
:101AB00006D140F480203060306840F4803005E08A
:101AC00020F480303060306820F480203060FFF7F0
:101AD00087FB002D054610D03068800310D4FFF737
:101AE0007FFB401B6428F7D922E100BFFFF778FB9A
:101AF000401B64284FF0030054D830688003F5D4AD
:101B0000207880071AD5B06810F00C0F09D0B068A3
:101B100000F00C00082840F08C807068400200F152
:101B200088803068800702D5E06801283DD13068A0
:101B3000216920F0F80040EAC100306020780007F9
:101B400037D4207840074AD4A56955B3B06800F06F
:101B50000C00082840F0A080012D26D07068E169B3
:101B600000F480028A4220D1216A00F03F028A42BA
:101B70001BD147F6C071626A0140B1EB821F14D1DC
:101B8000A16A4FF6FF73C903994300F44032A1F5EF
:101B900080318A4209D1E16A00F07060B0EB016FD8
:101BA00003D1002002B0BDE8F081012002B0BDE801
:101BB000F0816069002840F20000C4F247205AD04A
:101BC0000121C0F8801EFFF70BFB0546706F8007F0
:101BD000B7D4FFF705FB401B0228F7D9A8E0306C0B
:101BE0004FF00008C0000CD4CDF80480306C4FF0EA
:101BF000010840F080503064306C00F0805001905B
:101C0000019847F20007C4F200073868C00525D4E0
:101C1000386840F480703860FFF7E2FA054600BF8C
:101C20003868C0051AD4FFF7DBFA401B0228F7D941
:101C30007EE0E068002851D00020C4F24720012156
:101C40000160FFF7CDFA0546306880073FF56FAFBA
:101C5000FFF7C6FA401B0228F6D969E0A568012DF6
:101C600005D0306F052D4DD140F004003067306F46
:101C700040F001004CE00021C0F8801EFFF7B0FAF0
:101C8000054600BF706F80077FF55BAFFFF7A8FACE
:101C9000401B0228F6D94BE00027C4F2472700205A
:101CA0003866FFF79DFA022D05460BD1306880019A
:101CB00056D5FFF795FA401B02284FF00300F5D9DF
:101CC00070E700BF306880017FF56BAFFFF788FADF
:101CD000401B02284FF00300F4D963E70020C4F250
:101CE000472000210160FFF77BFA05463068800736
:101CF0007FF524AFFFF774FA401B02284FF0030072
:101D0000F4D94FE720F001003067306F20F0040075
:101D10003067FFF765FA002D054641F2883713D08A
:101D2000306F800713D4FFF75BFA401BB842F7D936
:101D3000032002B0BDE8F081FFF752FA401BB84221
:101D40004FF003003FF62EAF306F8007F4D4B8F1A8
:101D5000000F3FF4F9AE306C20F080503064F3E6B1
:101D600004F11C052FCD084340EA8210D9034FF639
:101D7000FF729143A1F5803140EA0560084370602D
:101D800001203866FFF72CFA044600BF3068800156
:101D90003FF507AFFFF724FA001B02284FF00300BE
:101DA000F4D9FFE680B501F0D3FF80BD7047000095
:101DB0007047000010B590F83C20012A4FF0020255
:101DC00040D0012380F83C3080F83D200268D2F8F2
:101DD00004E0D2F808C00C682EF07003234340F6EC
:101DE000FF34C4F20004A24253600FDCB2F1804F12
:101DF0001DD040F20043C4F200039A4217D040F6CF
:101E00000003C4F200039A4211D015E040F60043EB
:101E1000C4F200039A420AD044F20003C4F2010360
:101E20009A4204D00023C4F201039A4204D14968C3
:101E30002CF08003194391600121002280F83D10AD
:101E400080F83C20104610BD002804BF01207047D8
:101E500010B5044690F83D0028B9002084F83C00F5
:101E6000204600F01FF8022084F83D002068211D64
:101E700001F0EAFF012084F8460084F83E0084F86F
:101E80003F0084F8400084F8410084F8420084F860
:101E9000430084F8440084F8450084F83D000020A5
:101EA00010BD000080B582B0006840F20041C4F26D
:101EB000000188421DD00021C4F20101884227D1CF
:101EC0000020019043F64000C4F202004168002265
:101ED00041F0010141604068012100F001000190E2
:101EE00001981920FFF79AFC1920FFF793FC02B024
:101EF00080BD0020009043F64000C4F2020001685B
:101F000041F002010160006800F0020000900098BA
:101F100002B080BD90F83D1001291CBF0120704720
:101F2000022180F83D10006840F6FF32C168C4F21B
:101F30000002904241F00101C1600FDCB0F1804F1E
:101F40001DD040F20041C4F20001884217D040F693
:101F50000001C4F20001884211D017E040F60041B0
:101F6000C4F2000188420AD044F20001C4F2010127
:101F7000884204D00021C4F20101884206D1816860
:101F800001F00701062904BF00207047016841F0F5
:101F9000010101600020704710B5044690F83C0034
:101FA00001284FF0020008BF10BD012284F83C2038
:101FB00084F83D0020684FF6777382689A43826008
:101FC0000A684F2A0FDC1F2A22DD202A23D0302A5C
:101FD00021D0402A4DD14B68CA68194602F088F8D2
:101FE000206840213BE06F2A17DDB2F5005F20D06A
:101FF000B2F5805F2AD0702A3BD1D1E9012CCB68A1
:10200000614601F0A5FF2068816841F077011AE080
:102010000AB1102A2DD1114621E0502A18D0602A89
:1020200027D14B68CA68194602F074F8206860210D
:1020300015E0D1E9012CCB68614601F089FF2068E9
:10204000816841F48041816000200BE0002009E0BC
:102050004B68CA68194602F04BF82068502101F01D
:1020600083FF0020012184F83D10002184F83C10FA
:1020700010BD0120F6E70000002804BF01207047D2
:102080002DE9F047044690F83D000D4628B90020A0
:1020900084F83C00204600F049F8022084F83D0016
:1020A000206844F20702816891438160211D01F09C
:1020B000CBFE20684FF6FF7881688269D0F820C097
:1020C000D5E9003ED5E9026A43EA0109AB6922EA93
:1020D000080246EA03234FF6FC46B343D5E90767F7
:1020E00042EA0A0229691A4342EA062242EA011137
:1020F0002CF0AA026B6942EA0E0241EA073142EA79
:102100000312C0F8089081610262012084F8460041
:1021100084F83E0084F83F0084F8420084F84300CD
:1021200084F83D000020BDE8F087000080B586B04F
:102130000021CDE90411CDE90211006840F600024A
:10214000C4F200029042019122D0B0F1804F48D1F8
:10215000002043F630010090C4F202010A6942F007
:1021600001020A610A6902F001020092009A0090DD
:10217000086840F0010008600868012100F00100D3
:1021800000900098032001900020C4F202001FE09C
:1021900043F630000091C4F20200026942F00402EA
:1021A0000261026902F004020092009A0091016843
:1021B00041F0020101600068022100F0020000907D
:1021C0000098C02001900020C4F2020000F5806059
:1021D000022202920022CDE90322059101A9FEF715
:1021E0002BFF06B080BD000010B5044690F83E00FD
:1021F00094F83F2094F8423094F843C0042907D063
:1022000089B901284FF0010008BF012B23D010BD70
:10221000012A4FF0010008BFBCF1010FF7D10220E5
:1022200084F83F0012E001284FF0010008BF012AA6
:10223000EDD1012BEBD1BCF1010F18BF10BD022075
:1022400084F83E0084F83F0084F8420084F843009C
:10225000042907D10EE0022084F83E0084F84200F1
:10226000042907D009B9002105E0206800210122D6
:1022700001F05CFE04212068012201F057FE206875
:10228000016841F001010160002010BDB0B50446B5
:1022900090F83E0094F83F5094F8423094F8432070
:1022A000042907D081B901284FF0010008BF012B94
:1022B0002AD0B0BD012D4FF0010008BF012AF8D18E
:1022C000022084F83F0011E001284FF0010008BF10
:1022D000012DEED1012BECD1012A18BFB0BD022097
:1022E00084F83E0084F83F0084F8420084F84300FC
:1022F000042910D0C1B920680021012201F016FE86
:10230000206802250C3020E0022084F83E0084F88A
:1023100042000429EED1206804210122042501F0A5
:1023200005FE20680C3010E020680021012201F039
:10233000FDFD206804210122042501F0F7FD20683D
:1023400050F80C1F41F0020101600168294301604F
:102350002068016841F0010101600020B0BD00006B
:1023600070470000B0B504460068C168026902EA1F
:102370000105A9071DD4680731D4280747D4E8060A
:102380005CD4E80773D128067BD4680606D520689C
:102390006FF040010161204600F088FAA80658BF9E
:1023A000B0BD20686FF0200101612046FFF700FDFD
:1023B000B0BD6FF0020101610121217780698007C2
:1023C00003D02046FFF7CCFF05E0204600F092F84E
:1023D000204600F00DF9002020776807CDD5206851
:1023E0006FF00401016102212177806910F4407FC0
:1023F00003D02046FFF7B4FF05E0204600F07AF84E
:10240000204600F0F5F8002020772807B7D520688F
:102410006FF00801016104212177C069800703D0B2
:102420002046FFF79DFF05E0204600F063F82046B8
:1024300000F0DEF800202077E806A2D520686FF0D3
:102440001001016108212177C06910F4407F03D099
:102450002046FFF785FF05E0204600F04BF82046B8
:1024600000F0C6F800202077E8073FF48CAF206822
:102470006FF001010161204600F026F928067FF582
:1024800084AF20686FF0800101612046FFF78EFC69
:1024900068067FF583AF7AE780B586B000220592A3
:1024A000CDE9032240F200410068C4F200018842F5
:1024B0000292019201D006B080BD43F63000009236
:1024C000C4F20200036843F001030360006800F0F7
:1024D000010000900098C02001900220CDE9020286
:1024E000CDE9042001F5FE3001A9FEF7A5FD06B0F7
:1024F00080BD000070470000B0B5044690F83C0075
:10250000012804BF0220B0BD0D464FEAB2010120F0
:10251000032984F83C0037D8DFE801F0020A1222D0
:102520002068294601F028FD206850F8181F0EE0A9
:102530002068294601F050FD206850F8181F16E069
:102540002068294601F07CFD206850F81C1F41F0EE
:1025500008010160016821F00401016029690FE0B0
:102560002068294601F0A0FD206850F81C1F41F4A6
:1025700000610160016821F480610160296909023C
:102580000268114301600020002184F83C10B0BDB6
:10259000002804BF0120704710B5044690F83D00A4
:1025A00028B9002084F83C00204600F01FF80220E3
:1025B00084F83D002068211D01F046FC012084F8CC
:1025C000460084F83E0084F83F0084F8400084F818
:1025D000410084F8420084F8430084F8440084F801
:1025E000450084F83D00002010BD00007047000049
:1025F00070470000B0B5044641B1082909D004294C
:1026000014BF04F1410004F13F0004E004F13E0076
:1026100001E004F14000007801281CBF0120B0BD9A
:10262000022041B1082909D0042914BF84F84100CF
:1026300084F83F0004E084F83E0001E084F84000A4
:10264000206844250122C4F2010501F06FFC2068D6
:10265000A5F14401884203D1296841F40041296071
:1026600040F6FF31C4F2000188420FDCB0F1804F28
:102670001DD040F20041C4F20001884217D040F65C
:102680000001C4F20001884211D017E040F6004179
:10269000C4F2000188420AD044F20001C4F20101F0
:1026A000884204D00021C4F20101884206D1816829
:1026B00001F00701062904BF0020B0BD016841F008
:1026C000010101600020B0BDF0B581B02DED088B97
:1026D00000680021C4F20101884240F0D48040F239
:1026E000A014C2F20004204600F026FF40F2183584
:1026F000C2F20005284600F01FFF94ED0E0B94ED8A
:10270000101B53EC102B51EC110B03F0F3F802F0FB
:10271000A9FC40F2E8069FED5E8AC2F2000600EED8
:10272000100A3046F0EE480AFEF708FB96ED2B0A39
:102730009FED582A40F2783096ED2C1A30EE020ABE
:10274000C2F200009FED542A80ED000A40F2703082
:1027500096ED2D3A31EE02AAC2F200009FED4F1A1B
:1027600080ED00AA40F2683033EE01BAC2F20000F8
:1027700080ED00BA10EE100A03F0A6F941EC190B37
:102780001AEE100A03F0A0F941EC1A0B1BEE100A26
:1027900003F09AF940F2780641EC120BC2F20006FF
:1027A000B0EE490AB0EE4A1A3046F0EE690AF0EE91
:1027B0006A1A01F027FA95ED0E0B95ED101B53ECFC
:1027C000102B51EC110B03F095F802F04BFC40F28A
:1027D0006027C2F2000700EE100A3846F0EE480A01
:1027E000FEF7ACFA97ED2B0A9FED2D2A40F27C30D4
:1027F00097ED2C1A30EE020AC2F200009FED292A52
:1028000080ED000A40F2743097ED2D3A31EE029AD5
:10281000C2F200009FED241A80ED009A40F26C3065
:1028200033EE01AAC2F2000080ED00AA10EE100AF9
:1028300003F04AF941EC180B19EE100A03F044F9C1
:1028400041EC190B1AEE100A03F03EF940F2F017B2
:1028500041EC120BC2F20007B0EE480AB0EE491A82
:102860003846F0EE680AF0EE691A01F0CBF930460E
:1028700000F0DEFF384600F0DBFF204600F0C4FE2B
:10288000284600F0C1FEBDEC088B01B0F0BD00BFD2
:102890000000C07F9A99194100007044A69BC43C77
:1028A0009A998D410040DD447D3F353D70470000E1
:1028B000704700007047000070B582B0036804469E
:1028C0001868D9685D6900F02F02202A01F0200203
:1028D00005D122B1204601F09BFC02B070BD5FEA39
:1028E000007C08D005F0010E11F4907F8EF00105F8
:1028F0004FD1002D4DD0226B0840C1063FD5012A93
:102900003DD100200190186801905868019001980D
:102910005869400600F19E80A08DE18DE28D002A6D
:102920001CBF401A5FEA004102D102B070BD00BF77
:10293000216851E8031F226821F4907142E80313D3
:10294000002BF5D1216851E8051F226821F0010113
:1029500042E80513002BF5D1202184F84210002114
:10296000216300BF216851E8031F226821F0100194
:1029700042E80313002BF5D102216163AEE00106AA
:1029800000F1AE804006D0D5204601F035FC02B003
:1029900070BDC30718BF11F4807303D0636C43F09C
:1029A0000103636400F00406012383EA96062E43C4
:1029B00003D1666C46F00206666400F0020683EA04
:1029C00056032B4303D1636C43F00403636452EA60
:1029D0000E0218BF0122BCF1000F04D51AB1626CBF
:1029E00042F008026264626C002A9ED008408006B1
:1029F00002D5204601F00CFC20684069616C00F0B3
:102A0000400001F00801401800F08480204601F0E9
:102A1000CBFB20684069400677D500BF206850E8AE
:102A2000050F216820F0400041E80502002AF5D199
:102A3000E06B002869D044F29911C0F600010165ED
:102A4000FEF7D4FA00283FF470AFE06B016D8847C1
:102A500002B070BDE06B016849688AB2002A44D0B8
:102A6000A38D9A4241D2E185C069B0F5807F30D014
:102A7000206850E8030F216820F4807041E80302C9
:102A8000002AF5D1206850E8050F216820F00100E8
:102A900041E80502002AF5D1206850E8050F2168B9
:102AA00020F0400041E80502002AF5D1202084F8FA
:102AB00042000020206300BF206850E8030F216817
:102AC00020F0100041E80302002AF5D1E06BFEF788
:102AD0004DFA02206063A08DE18D401A81B20FE0B3
:102AE000204601F081FC02B070BDA18D91427FF4BF
:102AF0001CAFC069B0F5807F7FF417AF0220606320
:102B00002046FFF7D5FE02B070BD2046FFF7D2FE8B
:102B100002B070BD2046FFF7CDFE0020606402B019
:102B200070BD0000002804BF0120704710B50446A6
:102B300090F8410028B9002084F84000204600F0B9
:102B400021F8242084F841002068C16821F4005154
:102B5000C160204601F0C0FB2068016921F490416A
:102B60000161416921F02A014161C16841F40051CC
:102B7000C16000202021606484F8411084F8421074
:102B8000606310BD80B586B000220592CDE90322B6
:102B900044F200410068C4F20001884202920192AE
:102BA00001D006B080BD43F630000092C4F20200AE
:102BB000036943F400330361036903F400330093B2
:102BC000009B0092036843F001030360006800F07B
:102BD0000100009000980C2001900220CDE9020233
:102BE000032004900720059001F5DE3001A9FEF7CF
:102BF00023FA262002210022FEF710FE2620FEF7EF
:102C000009FE06B080BD000010B590F84230202BC0
:102C10001CBF022010BD00294FF0010418BF002A7C
:102C200001D1204610BD0024046301F0C3FB2046FF
:102C300010BD0000704700002DE9F041044690F8F7
:102C4000410020281CBF0220BDE8F0810E4600296B
:102C50004FF0010042D01746002A08BFBDE8F081BE
:102C60004FF0000821201D46C4F8448084F841003C
:102C7000FEF7B6FAA784E784A1680746B1F5805F3E
:102C80000DD12069002814BF3046B046064606E044
:102C900016F8010B21684860E08C0138E084E08C74
:102CA00080B1204680213A462B4601F0C7FBB8B9D7
:102CB000002EEDD138F8020B21686FF35F204860D9
:102CC0000026E9E7204640213A462B4601F0B6FBB4
:102CD000202184F84110002818BF0320BDE8F081AE
:102CE000202084F841000320BDE8F08170470000F7
:102CF000FEE700000268516949054FF000010FD559
:102D00006FF4806353612022016380F83D2080F8D6
:102D10003E10026C42F00402026480F83C10012173
:102D2000084670472DE9F04782B0044600680E4619
:102D30000168DDF828A041F4806101600168DDF8D8
:102D40002C9041F480711D461746016020464FF0DB
:102D5000011100225346CDF8009000F0FFF850B169
:102D600020680068C00544BF4FF400702064032051
:102D700002B0BDE8F08740F202082068C0F2010806
:102D800006F0FE0606612046414652464B4600F0DC
:102D900035F948BB0020019020684A4641690191FD
:102DA0008069514601900198204600F0B7F998B922
:102DB000012D08D02068390A0161204651464A4653
:102DC00000F0ACF940B92068F9B2016120465146E3
:102DD0004A4600F0A3F958B1206C042804D12068B9
:102DE000016841F400710160012002B0BDE8F08784
:102DF000206800220168534641F48071016020463A
:102E00004FF00111CDF8009000F0A8F80028A7D1EC
:102E1000206846F0010101612046414652464B467A
:102E200000F0ECF8002818BF012002B0BDE8F087E0
:102E30002DE9F04383B0044600680D4601680A9FFF
:102E40000B9E41F4807199469046016020464FF0F8
:102E5000011100223B46009600F080F850B1206836
:102E60000068C00544BF4FF400702064032003B025
:102E7000BDE8F083206805F0FE0101610221C0F287
:102E8000010120463A46334600F0B8F818B1012057
:102E900003B0BDE8F083002002902068324641690B
:102EA00002918069394602900298204600F036F976
:102EB00040B1206C0428EAD12068016841F4007117
:102EC0000160E4E7B9F1010F0AD020684FEA182148
:102ED000016120463946324600F020F90028E8D149
:102EE00020685FFA88F10161002003B0BDE8F0833B
:102EF000F0B581B004460068406940071AD4154611
:102F00000E464F1C08E000BF20684069400714D5FA
:102F10002068406940070DD42046FFF7EBFEC8B992
:102F2000002FF5D0FEF75CF9002EEDD0401BB0422B
:102F3000EED9E9E7002001B0F0BD00202021206398
:102F400084F83D1084F83E00216C41F0200121649A
:102F500084F83C00012001B0F0BD00002DE9F047ED
:102F6000DDF8208099461646044601F47F078DB2AD
:102F700003F1010A11E000BF20681821B7F5803F76
:102F800008BF142140582A4608BF2A461040801A1C
:102F9000B0FA80F04009B04220D020681821B7F57F
:102FA000803F08BF142140582A4608BF2A461040D7
:102FB000801AB0FA80F04009B0420CD1BAF1000F8B
:102FC000EBD0FEF70DF9B9F1000FD5D0A0EB08005A
:102FD0004845E2D9D0E70020BDE8F0870020202155
:102FE000206384F83D1084F83E00216C41F02001FC
:102FF000216484F83C000120BDE8F0872DE9F0430E
:1030000081B098469146044601F47F078DB2561C64
:103010000DE000BF20681821B7F5803F08BF1421DC
:1030200040582A4608BF2A461040904228D12068BE
:103030001821B7F5803F08BF142141582A4608BF20
:103040002A46114091420ED0416949050FD4002E05
:10305000EDD0FEF7C5F8B9F1000FDBD0A0EB08000A
:103060004845E4D9D6E7002001B0BDE8F083016807
:1030700041F4007101606FF480614161042000E05F
:10308000202000212022216384F83D2084F83E1076
:10309000226C1043206484F83C10012001B0BDE88C
:1030A000F083000070B504460068154650F8143FE0
:1030B0005A0615D40E4608E02068406940061DD522
:1030C000206850F8141F49060AD40168C90609D4BB
:1030D000FEF786F8002EEFD0401BB042F0D9EBE7A8
:1030E000002070BD6FF010010160002020212063DE
:1030F00084F83D1084F83E00216C09E00020202176
:10310000206384F83D1084F83E00216C41F02001DA
:10311000216484F83C00012070BD0000F0B581B04E
:1031200004460068406900061AD415460E464F1C36
:1031300008E000BF20684069000614D52068406997
:1031400000060DD42046FFF7D5FDC8B9002FF5D0F5
:10315000FEF746F8002EEDD0401BB042EED9E9E76D
:10316000002001B0F0BD00202021206384F83D1034
:1031700084F83E00216C41F02001216484F83C0079
:10318000012001B0F0BD00002DE9F04184B001261E
:103190000DF10F00CDE9000640F280304FF47A7552
:1031A000C2F20000D021752201230295FEF7E6F855
:1031B0009DF80F00682834D140F28034C2F2000438
:1031C0004FF000080DF10E072046D0216B2201239D
:1031D0008DF80E80CDE900760295FEF7DDF9072027
:1031E0008DF80E002046D02119220123CDE900766A
:1031F0000295FEF7D1F92046D0211C2201238DF83B
:103200000E80CDE900760295FEF7C6F92046D02162
:103210001B2201238DF80E80CDE900760295FEF782
:10322000BBF904B0BDE8F08170B586B0002543F667
:1032300030000595CDE90355CDE901550095C4F25F
:103240000200016840F2004441F080010160016821
:10325000C4F2020401F08001009100990095016818
:10326000002241F00101016001684FF4704601F055
:103270000101009100990095016841F0020101608F
:1032800000684FF4704100F0020000900098204662
:10329000FDF7A0FF01200196CDE9020501A9204616
:1032A0000495FDF7C9FE06B070BD000080B540F280
:1032B000803045F20041C2F20000C4F2000148F241
:1032C000A06200234FF4804CC0F2010280E80E009F
:1032D000C0E9033CC0E90533C0E90733FDF786FFC9
:1032E000002808BF80BDFDF7B9FC000080B586B09E
:1032F00040F2D43000220021C2F20000C4F20102E8
:10330000632342F20F7CCDE90411CDE90211CDE92E
:103310000011C0E90023C0E9021CC0E90411816169
:10332000FEF792FDC0B94FF48050029040F2D430C5
:10333000C2F2000002A9FEF72FFE68B90020CDE915
:10334000000040F2D430C2F200006946FEF732FDC0
:10335000002804BF06B080BDFDF780FCB0B58CB07E
:1033600003AC20462421FDF7A8F840F21C400025BC
:10337000C2F200004FF08041C0E900150321CDE901
:10338000031501214FF0FF32CDE90515CDE90755B1
:10339000CDE909152146CDE90055C0E90252056184
:1033A00085610B95FEF768FE60B940F21C40C2F2E1
:1033B00000006946CDE90055FEF7FCFC002804BF7B
:1033C0000CB0B0BDFDF74AFC10B58EB040F26440C1
:1033D00040F200420021C2F20000C4F200020923C0
:1033E00040F2F3140D91CDE90B11CDE90911CDE9AE
:1033F0000711CDE90511CDE90311CDE90111C0E9AE
:103400000023C0E9021401618161FEF71DFDD8BBF4
:103410004FF480500A9040F26440C2F200000AA9C2
:10342000FEF7BAFD80BB40F26440C2F20000FFF735
:10343000AFF848BB40F264400024C2F2000008A983
:10344000CDE90844FEF7B6FCF0B96020CDE90104EF
:1034500040F26440C2F2000001A9002203940594E6
:10346000FFF74AF880B940F26440C2F2000001A9B7
:103470000422FFF741F838B940F26440C2F200007C
:10348000FFF70AF80EB010BDFDF7E8FBB0B58CB041
:1034900003AC20462421FDF710F840F2AC4040F682
:1034A00000010025C2F20000C4F20001C0E90015CD
:1034B0000321CDE9031501214FF6FF72CDE9051572
:1034C000CDE90755CDE909152146CDE90055C0E9FB
:1034D0000252056185610B95FEF7CEFD60B940F2A1
:1034E000AC40C2F200006946CDE90055FEF762FC2F
:1034F000002804BF0CB0B0BDFDF7B0FB80B540F2B2
:10350000F44044F20041C2F20000C4F20001002382
:103510004FF00C0C4FF4E13280E80E00C0E90333A9
:10352000C0E905C3C361FFF7FDFA002808BF80BDED
:10353000FDF794FBFEE700002DE9F04104464069E9
:103540000068476A608B94F80080381AA08300B244
:10355000278302F02EF89FED120B53EC102B01F095
:1035600067FE9FED110B05460E4651EC100B2A46E7
:10357000334602F0BFF99FED0E0BB8F1000F53EC8C
:10358000102B04BF3146284602F0B6F841EC100B70
:10359000678384ED0E0BBDE8F08100BF00BF00BF64
:1035A0000000000000E095400000000000000080E6
:1035B000000000000070B74070B50DF1180E044611
:1035C0009EE80150DDE9046521706260002104F18C
:1035D00020022381E6602582C4E90B0CC4E905E1E1
:1035E000E16182EC030AC4E90E11C4E91011C4E9D7
:1035F00012116146FEF7FEFF60693C21FEF7F4FD03
:1036000070BD0000000000002DE9F0472DED028B99
:1036100090ED120B9FED528B55EC106B044653EC62
:10362000182B3046294602F088FA10B184ED128B2F
:103630000BE09FED4D8B304653EC182B294602F0E2
:1036400083FA002808BF84ED128B2078C8B10128C6
:1036500040F0818094ED120B9FED451B57EC105B01
:1036600058EC116B284639463246434602F073FA4D
:10367000E8B9606821890122FDF7ACFDE068218A84
:103680003DE094ED120B9FED3A1B57EC105B5AECAA
:10369000116B284639463246534602F05CFAD0B9DF
:1036A000606821890022FDF795FD012641E06068F0
:1036B00021890022FDF78EFDD4F80CA0B4F81090FB
:1036C000284639463246434602F03EFAA8B95046EB
:1036D0004946012214E0D4F80490B4F80880284642
:1036E00039463246534602F02FFAE0B94846414681
:1036F0000122FDF76FFD00261BE0504649460022DF
:10370000FDF768FD94ED120B4FEAD87251EC100BE7
:1037100062F3DF7101F020FFE16A09688863BDECA4
:10372000028BBDE8F0874846414600220026FDF79F
:1037300051FDE068218A3246FDF74CFD94ED120BF5
:103740004FEADA7251EC100B62F3DF7101F004FF03
:10375000E16A09684863BDEC028BBDE8F08700BFF1
:103760000000000000307F400000000000307FC0FB
:103770000000000000000000FEE7000000F007006D
:1037800080F00703042B28BF04234FF0FF3C0338CD
:103790000CFA03F338BF0020994381400CFA00F083
:1037A00022EA00000843704770B52DED068BB0EE9D
:1037B000419AB0EE40AA04464030F0EE619AF0EE35
:1037C00060AA0EC000209FED160B9FED171BB0EEF8
:1037D000428ADDE90A5660702046F0EE628A00F007
:1037E0007DF96420A0602046314600F029F9B0EE52
:1037F0004A0AB0EE491AB0EE482A2046F0EE6A0AAC
:10380000F0EE691AF0EE682A294600F001FAFDF799
:10381000E7FCA168401A6060BDEC068B70BD00BF7C
:1038200000000000000000000000000000E06F4009
:103830002DE9F04F81B02DED088B84B0044640781F
:1038400040B1FDF7CDFCD4E90121821A8A4203D2AE
:103850000020B9E00020B7E00390206CA16C90ED4F
:10386000008B91ED000B56EC185B51EC100B2A46C7
:10387000334602F03FF894ED160B81460F4653ECA9
:10388000102B2846314602F035F894ED0C0B834698
:10389000884653EC102B48463946CDF808900197DE
:1038A00001F02AFF94ED140B02460B4651EC100B6D
:1038B00001F00AFC94F800A041EC100BBAF1000FE3
:1038C00084ED140B13D194ED0A0B06460F4653EC0E
:1038D000102B5846414601F00FFF02460B4630467A
:1038E000394602F007F841EC100B84ED140B94ED0F
:1038F000140B94ED1A9B56EC105B59EC197B28467F
:1039000031463A464B4602F018F9B0EE49AAF0EEBD
:1039100069AA78B184ED14ABBAF1000F19D094ED17
:103920000A0BDDE9011053EC102B01F0E5FE41EC30
:103930001A0B10E094ED18AB284653EC1A2B3146C5
:1039400002F002F9002808BF84ED14ABBAF1000FB1
:10395000E5D19FED21AB94ED0E0B94ED14BB53EC30
:10396000102B5846414601F0C7FE02460B4651EC6B
:103970001B0B01F0BFFF02460B4651EC1A0B01F086
:10398000A3FB3A464B4605460E4641EC1A0B02F0A5
:10399000D4F888B994ED18BB284653EC1B2B31465C
:1039A00002F0D2F8B0EE4A9AF0EE6A9A002804BF0C
:1039B000B0EE4B9AF0EE6B9A606C80ED009B039832
:1039C00084ED168B6060012004B0BDEC088B01B063
:1039D000BDE8F08F00BF00BF000000000000000045
:1039E00070B52DED028B0446D0E9101094ED1A8BC2
:1039F00090ED000B53EC182B84ED140B91ED001B94
:103A000055EC106B3046294684ED161B02F095F8F4
:103A100020B184ED148BBDEC028B70BD94ED188B3E
:103A2000304653EC182B294602F08EF8002808BFC8
:103A300084ED148BBDEC028B70BD00000000000013
:103A4000F0B581B02DED048B044640780D4650B39F
:103A5000E078A84227D094ED0A0B94ED0C8B53EC40
:103A6000102B9FED130B94ED0E9B57EC106B304613
:103A7000394601F03FFF41EC100B53EC182B304658
:103A8000394684ED0A0B01F035FF41EC100B53EC85
:103A9000192B3046394684ED0C0B01F02BFF41EC1D
:103AA000100B84ED0E0BE570BDEC048B01B0F0BD86
:103AB0000000000000000080B0B50446481EB0FAC7
:103AC00080F04FEA501501D1607808B16570B0BD43
:103AD0002046FFF785FF6570B0BD00002DE9F04F6F
:103AE00081B02DED048B58EC106B57EC115BB0EEF0
:103AF000419AB0EE408A0446304641462A463B464B
:103B0000F0EE619AF0EE608A02F01EF800283FD1D4
:103B1000607884ED188B84ED1A9BC8B3D4F844B058
:103B20002A469BED000B3B4659EC10AB50464946EC
:103B300002F003F810B18BED009B0DE050464946B2
:103B40003246434602F000F8B0EE489A0028F0EE04
:103B5000689A08BF8BED009B94ED140B94ED1A8BC3
:103B600055EC106B53EC182B3046294601F0F3FF4F
:103B700010B984ED148B0BE094ED188B304653ECA8
:103B8000182B294601F0E0FF002808BF84ED148BB4
:103B9000BDEC048B01B0BDE8F08F00000129B8BF77
:103BA0007047F0B581B0054608460C4601F001FDAE
:103BB0000646A8680F4601F013FD02460B46304644
:103BC000394601F035FB95ED0C0B06460F4651ECDE
:103BD000100B32463B4601F08FFD95ED0E1B41EC7C
:103BE000100B51EC110B32463B4685ED0C0B01F0EE
:103BF0001FFB41EC100BAC6085ED0E0B01B0BDE876
:103C0000F040704780B5817800F002F880BD000078
:103C10002DE9F04F81B02DED068B82B0B0EE408AD9
:103C2000F0EE608A9FED420B0E4657EC109BB0EE13
:103C3000429AB0EE41AA044651EC180B4A463B4664
:103C4000F0EE629AF0EE61AACDE9000101F08AFF80
:103C5000002867D158EC1A5B284641464A463B4645
:103C600001F080FF00285DD15AEC19BB584651463F
:103C70004A463B4601F076FF002853D1701EB0FA49
:103C800080F040092070A068A67084ED048B84ED5C
:103C900006AB84ED089B01F0A3FC9FED270B53ECD2
:103CA000102B01F0C5FA2A46434606460F4684ED1E
:103CB0000A8B01F021FD41EC100B05468846584661
:103CC000514632463B4684ED0C0B01F0B1FA824678
:103CD000E07841EC10AB012884ED0E0B22D19FED72
:103CE000180BDDE9002357EC106B89463046394646
:103CF00001F000FE41EC100B304639462A4643469F
:103D000084ED0A0B01F0F6FD41EC100B304639460C
:103D100052464B4684ED0C0B01F0ECFD41EC100BD0
:103D200084ED0E0B02B0BDEC068B01B0BDE8F08F48
:103D300000000000000000000000000000408F4074
:103D40000000000000000080704700007047000085
:103D5000B0B501380024B4EB106F1CBF0120B0BD1A
:103D60004EF21005CEF2000568604FF0FF300F21D3
:103D700000F0CAFB0720AC6028602046B0BD000000
:103D800080B5FDF7D9FC80BD70B592B006AC204679
:103D90003021FCF792FB002543F640000595CDE964
:103DA0000355CDE901550095C4F2020001680226D1
:103DB00041F080510160006800F080500090009850
:103DC00047F200000095C4F20000016841F4404150
:103DD0000160006800F440400090009801200990C4
:103DE00010200A9008200696CDE90C650E906420FC
:103DF000CDE90F06042011902046FDF731FE78B979
:103E00000F20CDE901064FF480500395CDE904055C
:103E100001A80321FDF716FD002804BF12B070BDF4
:103E2000FCF71CFF4EF68850CEF20000016841F40A
:103E3000700101607047000080B540F2D430C2F2DA
:103E40000000FEF78FFA80BD10B540F2FF7E0368D8
:103E5000C4F2000E40F2000C7045C4F2010C0ADD01
:103E600040F60002C4F2000290420DD060450BD033
:103E700040F6004204E0B0F1804F05D040F200422D
:103E8000C4F20002904203D14A6823F07003134346
:103E90004FF6FF72C4F20002904209DC704512DC5A
:103EA000B0F1804F26D040F20042C4F200021FE081
:103EB00044F2FF32C4F2010290420FDC604519D097
:103EC00044F2000212E040F60002C4F20002904206
:103ED00010D040F60042C4F2000209E044F60002AD
:103EE000C4F20102904205D044F20042C4F2010241
:103EF000904203D1CA6823F44073134323F0800235
:103F00004B69D1F800E08C681A436045C462C0F880
:103F100028E002D10969CCF83010016841F00401B1
:103F2000016001214161026010BD000080B501F017
:103F30001F014FF0010CD0F820E00CFA01F32EEA3B
:103F400003030362036A02FA01F11943016280BDAF
:103F5000D0F808C011432CF47F4C41EA032141EA18
:103F60000C01816070470000826822F070021143EA
:103F700041F007018160704770B5026A036A40F240
:103F8000000E23F001030362456883690C688E68A4
:103F900023F0730322F00202C4F2010E43EA040C80
:103FA000704542EA060208D070450ED04560C0F860
:103FB00018C049684163026270BDCB6822F00C02F0
:103FC00023F004031A437045F0D125F44073D1E97E
:103FD000056533431D43E9E770B5026A036A40F2A1
:103FE000000E23F010030362456883690C688E6835
:103FF00023F4E64322F02002C4F2010E43EA042C2B
:10400000704542EA061208D0704510D04560C0F8ED
:1040100018C049688163026270BDCB686FF04004CC
:1040200022F0C00204EA03131A437045EED125F4CE
:104030004063D1E9056543EA860343EA8505E5E780
:1040400070B5026A036A40F2000E23F480730362C3
:104050004568C3690C688E6823F0730322F400720C
:10406000C4F2010E43EA040C704542EA062208D06D
:10407000704510D04560C0F81CC04968C163026239
:1040800070BDCB6840F2FF441B0222F44062A343A0
:104090001A437045EED125F44053D1E9056543EA52
:1040A000061343EA0515E5E7B0B5D0F820E0026A4B
:1040B00022F4805202624468C3690A6823F4E6432A
:1040C0008D6843EA022C00232EF40052C4F201034F
:1040D000984242EA053304D14A6924F4804545EA0E
:1040E00082144460C0F81CC0496801640362B0BD1A
:1040F000D0F820C0036A23F001030362836923F030
:10410000F00343EA02122CF00A03194382610162B0
:1041100070470000D0F820C0036A23F01003036248
:10412000836923F4704343EA02322CF0A00343EA8C
:1041300001118261016270479FED162AB4EE600A98
:10414000F1EE10FA23DDB4EE610AF1EE10FA1EDA98
:10415000B4EE410AF1EE10FA04BFB7EE000A704760
:10416000B4EE600AF1EE10FA0BDDB4EE410AF1EEA6
:1041700010FA06DA30EE600A31EE601A80EE010ABB
:10418000704731EEC00A31EEC11A80EE012AB0EE5E
:10419000420A70470000000080B5806B0021C18595
:1041A000FEF788FB80BD0000016851E8031F02682C
:1041B00021F4907142E80313002BF5D1016851E816
:1041C000051F026821F0010142E80513002BF5D11B
:1041D000016B01290AD100BF016851E8031F026881
:1041E00021F0100142E80313002BF5D1202180F8C3
:1041F000421000210163704780B50168CA6822F04F
:104200004002CA60202180F84110FEF76FFD80BD9A
:1042100080B582B090F8421022291ED18268B2F592
:10422000805F02D1016900294AD0816AB2F5805FBE
:1042300007D00AB9026922B10268526802F07F020F
:1042400001E0026852680A700121826A11448162A9
:10425000C18D01390A04C18501D002B080BD016859
:10426000CA6822F02002CA60CA6822F48072CA605A
:104270004A6922F001024A61202180F8421000219F
:104280004163026B012A23D1016300BF016851E839
:10429000031F026821F0100142E80313002BF5D13F
:1042A00001680A68D20606D5002201920A680192C6
:1042B000496801910199818DFEF7FAFA02B080BD3B
:1042C0000168826A49686FF35F2111800221BCE7AF
:1042D000FEF7B0FC02B080BD10B504460068D4E91A
:1042E00002C22369016921F44051114301616269ED
:1042F00043EA0C01E3691143C268194349F20C63B4
:104300009A431143C1604169A26921F4407141F2AD
:104310000043114340F48062C4F201039A424161B8
:1043200002D1FDF757FB01E0FDF742FBE16963684D
:104330001922B1F5004FA0FB02011CD15A00DB0F7E
:10434000FBF7A6FF48F21F51C5F2EB11A0FB0123BA
:104350005A096FF0630302FB0300322303EBC00032
:10436000A0FB01014FF4F87000EA111000EB0210FD
:10437000C1F342111AE09A009B0FFBF789FF48F244
:104380001F51C5F2EB11A0FB01235A096FF0630323
:1043900002FB0300322303EB0010A0FB0101F0201D
:1043A00000EA511000EB0210C1F3431122680843E8
:1043B000906010BD816200218285C2854164222106
:1043C00080F84210016921B10168CA6842F4807224
:1043D000CA600168486940F001004861C86840F05F
:1043E00020020020CA60704790F84110212923D193
:1043F0008168B1F5805F01D1016931B1016A02685C
:104400004B1C03620978516007E0016A036831F8C8
:10441000022B6FF35F225A600162C18C01390A04DA
:10442000C18418BF70470068C16821F08001C16075
:10443000C16841F04001C160704700002DE9F041C2
:1044400082B00446006800680840884203D100201A
:1044500002B0BDE8F0811D460E4690465F1C04E0A8
:10446000206800683040B04228D0002FF8D0FCF718
:10447000B7FE01464FF003000DB3A1EB0801A942BE
:104480001DD82068C1684907EAD5402EE8D0802EA3
:10449000E6D001680907E3D500250195016801917F
:1044A0004068019001982046FFF77EFE0820606476
:1044B00084F84050012002B0BDE8F081002002B035
:1044C000BDE8F08180B540F2F440C2F20000FEF792
:1044D000F3F980BDFEE70000002848BF704700F0F8
:1044E0001F01012202FA01F14EF200124009CEF240
:1044F000000242F8201070474EF60C50CEF2000039
:104500000068C0F3022070474EF6145300F00F020B
:10451000CEF2000309011A4400F16043B0F1FF3FFD
:10452000C8BF03F564421170704700004EF60C518D
:10453000CEF200010A684FF6FF031A4060F30A2228
:1045400042F0806040F0FD7008607047000000009D
:1045500096B0FDF7FFF8FFF717FCFEF765FEFEF7D4
:10456000FDFEFEF731FFFEF791FFFEF7C7FFFEF7F6
:10457000BDFEFEF79BFE40F2F44BC2F2000B40F290
:104580003C51C2F2000158460122FEF73DFB40F2C9
:10459000D430C2F20000FDF7BDFC40F21C49C2F26B
:1045A000000948463C21FDF771FE40F2AC48C2F2DA
:1045B000000840463C21FDF769FE40F2644AC2F221
:1045C000000A504600210024FEF714F8504604214A
:1045D000FEF710F8192000210022FDF71FF919201D
:1045E000FDF718F945F6365745F6055545F6D44614
:1045F0009FED8D8A9FED8D9A40F2E800C0F600078E
:10460000C0F60005C0F600069FED891AB0EE08AAB4
:104610009FED882AC2F20000B0EE480AF0EE490A87
:10462000F0EE4A1A39462A463346FCF793FC40F22C
:1046300060209FED811A9FED812AC2F20000B0EE4A
:10464000480AF0EE490AF0EE4A1A39462A4633463D
:10465000FCF780FC40F2004740F2A0154FF40050F8
:10466000C4F20207C2F200059FED750ADFED750A7C
:104670009FED751ACDE90070284600213A464FF4A7
:104680008053CDF808A0CDF810900394FEF794FF66
:104690004FF4004040F21836CDE900700420C2F219
:1046A00000069FED6A0ADFED6A0A9FED6A1A039021
:1046B000304601213A464FF48043CDF808A0CDF8AA
:1046C0001080FEF779FF40F20400C2F2000001689A
:1046D00001F1200791CF01F1380A01F1480801F1F9
:1046E000400901F0F1F941EC180B204601F0ECF91A
:1046F00041EC190B384601F0E7F940F2780441EC3F
:10470000120B0120C2F20004B0EE480AB0EE491AC2
:1047100000902046514642464B46F0EE680AF0EEC5
:10472000691A00270197FFF73FF820460121FFF79C
:10473000C3F920460A21FFF731FA9FED378B9FED31
:10474000389BB0EE480AB0EE491A2046F0EE680AEF
:10475000F0EE691AFFF7C2F940F20800C2F2000059
:10476000016801F1200791CF01F1380A01F14808F1
:1047700001F1400901F0A8F941EC1A0B204601F0C3
:10478000A3F941EC1B0B384601F09EF940F2F014FE
:1047900041EC120B0120C2F20004B0EE4A0AB0EE66
:1047A0004B1A00902046514642464B46F0EE6A0AAC
:1047B000F0EE6B1A00270197FEF7F6FF2046012165
:1047C000FFF77AF920460A21FFF7E8F9B0EE480A28
:1047D000B0EE491A2046F0EE680AF0EE691AFFF7CB
:1047E0007DF9FEF7D1FC1CA706AC00BF95ED0E0BC2
:1047F00096ED0E1B53EC102B204639468DED001B19
:10480000FBF7BEFD82B2584621466423FEF714FA38
:104810000A20FCF7FDFBE9E70000000000307FC044
:104820000000000000307F4000009643000070420E
:104830009A99193F0AD7A33B9A99993EA69BC43AE5
:104840009A99194100007044A69BC43C9A998D41E5
:104850000040DD447D3F353D5350443A252E3266BD
:104860002C252E32660A00005FEA400C08BF91F04A
:10487000000F4FEA8C234FEAC12243EA51514FEA1D
:104880001C5018BF00F5F0404FEA300018BF41F04F
:1048900000415FEA6C5C00F02980BCF1FF3F08BF7B
:1048A00040F080407047130C06BF12044FF0100C0C
:1048B0004FF0000C130E04BF12020CF1080C130F82
:1048C00004BF12010CF1040C930F04BF92000CF111
:1048D000020CD30F04BF52000CF1010C11464FF033
:1048E0000002A0F11F00A0EB0C00704711F0004F78
:1048F00008BF704731F000413FF4D5AF0B0C06BF45
:1049000009044FF0100C4FF0000C0B0E04BF09020D
:104910000CF1080C0B0F04BF09010CF1040C8B0FF8
:1049200004BF89000CF1020CCB0F04BF49000CF14D
:10493000010CCCF1200322FA03F341EA030102FA4D
:104940000CF2A0EB0C0000F10100704723F07F4750
:1049500020F07F4C80EA030000F00040ACEB07033E
:1049600003F57C5303F1FF032DE9804909B44FEAB5
:10497000144324EA03484FEA154B25EA0B4E0FF285
:10498000042606EB13273E7803FB0667C7F50007EE
:1049900007FB06F64FEAD64606F102064FEA543701
:1049A00007FB066CCCF1005C4FEA1C472CEA074C75
:1049B0000CFB06F507FB06F404EB15464FEA9616CA
:1049C00049085FEA320234BF00204FF000404FEA4E
:1049D000D13706FB07FC4FEA1C4C0CFB0BF7D21B34
:1049E00003FB0CF761EB07010CFB0EF7B0EB074084
:1049F00072EB17420CFB08F734BFA2EB0742B2EB95
:104A0000074261EB17414FEA0C444FEA910706FB5E
:104A100007FC4FEA1C4C0CFB0BF7B0EBC74072EBEA
:104A2000573203FB0CF734BFA2EBC742B2EBC742CD
:104A300061EB57310CFB0EF7B0EBC70072EB57720E
:104A40000CFB08F734BFA2EBC702B2EBC70261EB65
:104A500057714FEA816141EA92114FEA826242EA5C
:104A600090124FEA806004EBCC04039F4FEAD137E9
:104A700006FB07FC4FEA1C4C0CFB0BF7D21B03FB9D
:104A80000CF761EB07010CFB0EF7B0EB074072EB84
:104A900017420CFB08F734BFA2EB0742B2EB074208
:104AA00061EB17414FEA8C5504EB9C244FEA9107C8
:104AB00006FB07FC4FEA1C4C0CFB0BF7B0EBC740A6
:104AC00072EB573203FB0CF734BFA2EBC742B2EBD9
:104AD000C74261EB57310CFB0EF7B0EBC70072EB2E
:104AE00057720CFB08F734BFA2EBC702B2EBC70248
:104AF00061EB57714FEA816141EA92114FEA82629C
:104B000042EA90124FEA806015EB4C2544F1000414
:104B10004FEAD13706FB07FC4FEA1C4C0CFB0BF7A6
:104B2000D21B03FB0CF761EB07010CFB0EF7B0EB9C
:104B3000074072EB17420CFB08F734BFA2EB0742A9
:104B4000B2EB074261EB17414FEA813141EA9241F2
:104B50004FEA823242EA90424FEA80304FEA0C76C6
:104B600015EB1C1544F1000448EA03434EEA0B48D8
:104B70004FF0000EB2EB080C71EB030724BF624646
:104B800039464EEB0E0E4FF0000B001852414941D2
:104B90004BEB0B0BB2EB080C71EB03077BF1000B3B
:104BA00024BF624639464EEB0E0E4FF0000B001844
:104BB000524149414BEB0B0BB2EB080C71EB030775
:104BC0007BF1000B24BF624639464EEB0E0E51EAD4
:104BD000020718BF46F0010616EB0E7655F10002EB
:104BE00054F1000103D5BDE88901BDE80088BDE8A6
:104BF0008901BDE80048B619524141EB0101A3F11A
:104C00000103704780807F7E7D7C7B7A7978777620
:104C100076757473727171706F6E6E6D6C6C6B6A99
:104C20006A69686867666665646463636261616037
:104C3000605F5F5E5E5D5D5C5C5B5B5A5A595958B4
:104C4000585757565655555554545353525252511E
:104C5000515050504F4F4F4E4E4D4D4D4C4C4C4B74
:104C60004B4B4A4A4A4949494848484747474746BB
:104C700046464545454444444443434343424242F7
:104C8000424141419C46002B30D477002BD04FEA63
:104C900037071CB503B44FF010004FF01001BAF104
:104CA000000F06D0BCF1000FDCBF40F0080040F060
:104CB00008014FF000000FBCBDE810400BF1010BE4
:104CC000BBF1010F08BF5FEA170722BF12F1010213
:104CD00011F101014FF0004143F1000300F00040E9
:104CE00043EA00007047F9D35708D0E746EA064682
:104CF0004FEA164613F1400F1FDD13F1200FDFBFFF
:104D000016430A46002120335B42BED0C3F1200780
:104D100046EA06464FEA164602FA07F746EA07064B
:104D200022FA03F2C3F1200701FA07F742EA070269
:104D300021FA03F14FF00003A7E746EA020646EA2C
:104D400006464FEA164646EA0106BCBF46EA064654
:104D5000360C4FF000034FF000024FF0000194E7D3
:104D60002DE9804C70B49A46934691E8380007C804
:104D700031EA400C48BF34EA430C03D5FFF7E6FDA7
:104D8000FFF780FFF0BCBDE8008C2DE9804C70B4CB
:104D90009A46934691E8380007C810F0804F08BF44
:104DA00013F0804F03D100F005F8FFF76BFFF0BC64
:104DB000BDE8008C20F07F4723F07F4C80EA0300A1
:104DC00000F0004007EB0C03A3F57C53A3F1FE03B6
:104DD00092F0000F00F0B38095F0000F00F07780A4
:104DE0002DE901494FEA114021EA00484FEA1446F3
:104DF00024EA064700FB06FC08FB06F607FB08F85A
:104E000018EB06484CEB164C00FB07F718EB07486D
:104E10004CEB17404FEA124B22EA0B4E4FEA154675
:104E200025EA06470BFB06FC0EFB06F607FB0EFE0B
:104E30001EEB064E4CEB164C0BFB07F71EEB074E1A
:104E40004CEB174B18EB0B0840F1000018EB0E0B66
:104E500058EB000840F100008F1A4FF000014FF0AE
:104E600000063CBFC943661B14BFB5EB040C002110
:104E70003CBFC943F61B4FEA174427EA04454FEAF3
:104E80001C472CEA074C04FB076205FB07F70CFBE9
:104E900005F616EB074642EB174204FB0CFC16EB3B
:104EA0000C4642EB1C421BEB060658EB020241414A
:104EB0004EEA8E0E46EA9E0601D5BDE80189B61976
:104EC000524141EB0101A3F10103BDE801894FEA21
:104ED000144524EA05464FEA114721EA074C05FB31
:104EE00007F406FB07F70CFB06F111EB074144EB57
:104EF000174405FB0CFC11EB0C4144EB1C444FEA3E
:104F0000124722EA074C05FB07F206FB07F70CFBEA
:104F100006F616EB074642EB174205FB0CFC16EBB8
:104F20000C4642EB1C456A1854F1000148BF70471B
:104F3000B619524141EB0101A3F10103704795F00D
:104F4000000F37D04FEA114221EA02464FEA1447D8
:104F500024EA074C02FB07F106FB07F70CFB06F4FB
:104F600014EB074441EB174102FB0CFC14EB0C441F
:104F700041EB1C414FEA154725EA074C02FB07F5B8
:104F800006FB07F70CFB06F616EB074645EB174545
:104F900002FB0CFC16EB0C4645EB1C42121951F1BE
:104FA000000148BF7047B619524141EB0101A3F11E
:104FB000010370474FEA144524EA05464FEA1147BA
:104FC00021EA074C05FB07F106FB07F70CFB06F28D
:104FD00012EB074241EB174105FB0CFC12EB0C42B4
:104FE00051EB1C414FF0000648BF7047921841EB4F
:104FF0000101A3F10103704703B401984100009837
:1050000050EAC12018BF04204A0D18BF40F001002B
:1050100040F2FF72B2EB515F08BF40F0020001287E
:1050200008BF052002B0704730380A2801D201209D
:10503000704700207047000010B500290AD008789A
:10504000002807D005487844FBF7BEFD002801D0B2
:10505000002010BD0248784410BD00005E0D000025
:10506000560D000021F0004201F00043A2F1605211
:10507000B2F5801F28BFD2F17F6C0BD95FEA001C0C
:1050800043EAC20242EB507018BF704728BF20F0BD
:1050900001007047B2F5801FBCBF184670474FEA49
:1050A000410C1CF5001F02D2084600F0B5BD70B5DA
:1050B00000F0CCFB00000089FFF7F6BF4FF0004086
:1050C000A0F580007047000010B591EA030F48BFBB
:1050D00083F0004300F11684841A71EB030C05D2AF
:1050E000121943EB0C03001B61EB0C014FEA115446
:1050F000A4EB135CDFF81CE11EEA430F18BF9EEA25
:10510000445F73D021EA045123EA0E0343F4801371
:10511000DCF1200E32D322FA0CFE10EB0E0023FA43
:105120000CFE41EB0E01CCF1200E03FA0EFE10EB4B
:105130000E00CCF1200E51F10001B1F5801F32D2EA
:1051400001EB045112FA0EF2BDE8104058BF70474F
:10515000401C38BF5FEA420218BF7047002814BFE6
:1051600020F0010041F100014FEA410313F5001F57
:1051700038BF7047A1F1C04100F0B6BB012A43EB34
:105180000302ACF1200CDCF11F0E32BF4FF0000E19
:1051900023FA0CF310EB030041EB0451B4EB115F65
:1051A000D0D0A1EB045101F58011490801EB045165
:1051B0005FEA30000ED350F1000038BF12FA0EFE45
:1051C00008D1BDE81040C9E7401C38BF5FEA420281
:1051D000CAD1C3E7BDE810404FEA410313F5001FF1
:1051E00038BF7047A1F1C04100F07EBB9EEA445F2A
:1051F00008D011EA5E0FBDE8104004BF01F0004185
:1052000000207047BDE8104070B500F01FFB00BFE4
:1052100064FBBE3E0000E0FF491058BFC1F14041B1
:105220005B1058BFC3F140438B42EFF300807047DF
:105230002DE9C04130B4DFF8A0C23CEA111418BF18
:105240003CEA131400F0EC801CEA111481EA030517
:1052500044EAD57418BF1CEA131500F0C780A4EB0C
:10526000050404F17F7404F500344FF0004545EA6D
:10527000C12145EAC32341EA505143EA52534FEA60
:10528000C0204FEAC222994208BF904200F09C80A1
:105290004FEA13650FF24016765D4FEA134506FBA1
:1052A00005F7C7F1807706FB07F74FEAD737A7FB6B
:1052B00003687642A7FB06CEC8F5803838BFA8F150
:1052C000010807FB08E6A6FB028C4FF0000EE6FB88
:1052D00003CEDCF1000CCEF1004E38BFAEF1010E72
:1052E000A6FB0C584FF00007E6FB0E87A1FB08C693
:1052F000A0FB07CE16EB0E064FF0000545F10005AA
:10530000E1FB076515F1E04E7EBFA4F580345FEA4E
:1053100046066D4116F1800745F100054FEA172753
:1053200047EA05674FEA15254FEA0666A6F1DE460D
:10533000B6F1805F1FD9384605EBC47124F0010C2B
:1053400001EB0C11BCF1FE6F02D8F0BCBDE800818E
:1053500024425CBF01F5801E9EEAC47F02D4F0BCEB
:10536000BDE80081244238D4A1F1C041F0BCBDE8C1
:10537000004100F0B9BA4FEAD02040EA41504FEA6C
:10538000D1214FEAD22242EA43524FEAD323A7FB6C
:10539000028607FB036605FB02661EEA0E0F58BF76
:1053A000A6EB0056B6EB00564FEA520E4EEAC37E0D
:1053B00018EB0E0E56EB530EBDD518EB02085E41EE
:1053C0007F1C55F10005B6E74FF480154FF000073C
:1053D0004FF000064FF00008ADE701F1C04101F0C9
:1053E00000414FF00000F0BCBDE800810CEA13154D
:1053F00011EA0C1F00D00CE013EA0C1F00F025800E
:105400004FF0000081EA030101F00041F0BCBDE86B
:105410000081F0BCBDE8004181EA030100F064BAFC
:10542000F0BCBDE8004170B500F010FA097EFC3E0A
:1054300000F007B84FF0000081EA030101F00041DD
:10544000704781EA030100F04FBAF0BCBDE80041AB
:1054500022494FF000007047FFFDFBF9F7F5F4F229
:10546000F0EEEDEBE9E8E6E4E3E1E0DEDDDBDAD8FF
:10547000D7D5D4D3D1D0CFCDCCCBCAC8C7C6C5C45D
:10548000C2C1C0BFBEBDBCBBBAB9B8B7B6B5B4B374
:10549000B2B1B0AFAEADACABAAA9A8A8A7A6A5A45F
:1054A000A3A3A2A1A09F9F9E9D9C9C9B9A99999823
:1054B0009797969595949393929191908F8F8E8EC6
:1054C0008D8C8C8B8B8A8989888887878685858453
:1054D00084838382828181800000FF070000F87F3F
:1054E00051EA030C17D41CF5801F58BFBCF5801F70
:1054F00000F10680994218BF704708BF904270477C
:1055000007D711F5801F58BF13F5801F19D4994292
:105510007047894270471CF5801F08D5BCF5801F75
:10552000F7D58B4218BF704708BF824270474FF4CF
:10553000001C1CEB410F38BF1CEB430F01D28B4208
:10554000704770B500F082F9922449004FF0005185
:105550004FF08053FFF760BE4FEA1153A3F580630D
:10556000D3F11E03A8BFD3F1200C08DB4FF000429B
:1055700042EAC12252EA505232FA03F0704709421D
:105580000BD4102BC4BF0020704703F5787CBCF10E
:10559000FF3F05D04FF0FF3070474FF000007047DD
:1055A00070B500F053F900BF499224800020704785
:1055B000F0E710F0004248BF4042B0FA80F310FA22
:1055C00003F10AD0C3F11D0303F5806302EB03521C
:1055D0004FEA415002EBD12170474FF00000704775
:1055E000B0FA80F310FA03F10AD0C3F11D0303F5FA
:1055F00080634FEA03524FEA415002EBD1217047DA
:105600004FF000007047000051EA030C17D41CF55E
:10561000801F58BFBCF5801F00F10680994218BF5B
:10562000704708BF9042704707D711F5801F58BFD9
:1056300013F5801F19D499427047894270471CF5B1
:10564000801F08D5BCF5801FF7D58B4218BF704767
:1056500008BF824270474FF4001C1CEB410F38BF5B
:105660001CEB430F01D28B42704770B500F0EEF88F
:10567000922449004FF080514FF00053FFF7CCBD0A
:1056800051EA030C17D41CF5801F58BFBCF5801FCE
:1056900000F10680994218BF704708BF90427047DA
:1056A00007D711F5801F58BF13F5801F19D49942F1
:1056B0007047894270471CF5801F08D5BCF5801FD4
:1056C000F7D58B4218BF704708BF824270474FF42E
:1056D000001C1CEB410F38BF1CEB430F01D28B4267
:1056E000704770B500F0B2F8922449004FF00051B5
:1056F0004FF08053FFF790BD70B5DFF848C11CEA4A
:10570000111E1EBF1CEA13159EEA0C0F95EA0C0F22
:1057100000F06F8081EA03044EEAD47EAE4421EAB1
:105720004C1123EA4C1341F4801143F48013AEF181
:105730007F7EA1FB024CA0FB0365361955EB0C05DF
:10574000A1FB034C4CF10003A0FB021C16EB0C0662
:10575000654153F10003094218BF46F0010613F4F6
:10576000007F0BD14FEA03314FEA053041EA155172
:1057700040EA165034036FF003020AE04FEAC321F7
:105780004FEAC52041EA555140EA5650F4026FF005
:10579000020202EB2E4201EB025585EACE710AD0DD
:1057A0005FEA440C18BF24F0004450F1000041F1BE
:1057B000000120EAD47040F2FE7C624500D270BD48
:1057C000A84214BF4FF080444FF04044002E08BF61
:1057D0000024BEF1806FA8BFA1F1C041BDE87040B8
:1057E00080F2828001F1C04101F000414FF00000E1
:1057F00070470CEA13159EEA0C0F18BF95EA0C0FC0
:1058000006D081EA030E4FF000000EF0004170BD9B
:1058100000F01CF88900013E00F007B800F009B85C
:105820004FEA430C5FEA5C5C08D081EA030100F0B8
:105830005BB84FEA410C5FEA5C5CF6D102494FF07D
:10584000000070470000FF070000F87F0EF1020E15
:105850002EF0030E5EF8046B364205D4012A43EBAA
:10586000030515F5001F12D8012841EB010C1CF5AA
:10587000001F0CD80ED14FEAD17C0CEB4C0C0CF174
:10588000020C15F5001F08BF4CEBD37C04E04FF071
:10589000080C01E04FEAD37C0CEB4C0526FA05F628
:1058A00006F00706B6F1040C06D20EEB860CBDE836
:1058B00070404CF0010C6047DFE80CF0090B02026D
:1058C0004FF00041A1F500214FF0000070BD1946D6
:1058D0001046012851EB010418BFD4F5001484BF11
:1058E000002001F0004170BD0808A0F500114FEA4A
:1058F0003101704710B591EA030F48BF83F00043B0
:105900003FF5EAAB841A71EB030C07D28CF0004C24
:10591000121943EB0C03001B61EB0C014FEA11540D
:10592000A4EB135CDFF89CE11EEA430F18BF9EEA6C
:10593000445F00F0B08021EA045123EA6E03524232
:10594000C3EB6E0338BF5B1EDCF1200E25D322FAB9
:105950000CFE10EB0E0043FA0CFE41EB0E01CCF1F5
:10596000200E03FA0EFE10EB0E00CCF1200E51F1CA
:10597000000129D401EB045112FA0EF2BDE81040E7
:1059800058BF7047401C1CBFB2F1004F7047002841
:105990000CBF491C20F00100704712EB020E43EBD4
:1059A000030218BF4FF0010E4EEA4202ACF1200C88
:1059B000DCF11E0E54D943FA0CFE10EB0E00CCF1B4
:1059C0001E0E51F1FF31D5D50EF1010E12FA0EFE69
:1059D000404141EB010101EB445C5FEA5C5C10D9A2
:1059E00001EB045110EBDE7038BFBEF1004FBDE893
:1059F000104018BF704700280CBF491C20F0010060
:105A0000704730D24FEAD42C24F4006411F5001111
:105A10001BD0B1FA81F20B3AA41AA41ED2F12003D2
:105A2000914030FA03F31943904001EBCC7101EB44
:105A30000451002CBDE81040A8BF704701F1C041DF
:105A400001F000414FF000007047B0FA80F310FA07
:105A500003F100D110BDE41A173C4805C90AE4E778
:105A600001EB045110BD49104FEA300001EB045125
:105A7000BDE8104002E04FF0000170474A0008BF47
:105A80000042F8D0B2F5001F28BF704701F0004176
:105A90004FF0000070479EEA445F07D011EA5E0FA6
:105AA000BDE8104004BF002100207047BDE8104051
:105AB00070B5FFF7CBFE00BF40DFF63E104683F027
:105AC000004170470000E0FF43004FEAD30C4FEA6B
:105AD0003C0C43401FBF40070CF1605113F0FE4FD8
