:020000040800F2
:10000000D80900205D020008B13700085532000809
:100010006535000861180008A544000800000000CC
:100020000000000000000000000000007D3D00080E
:100030006518000800000000793D0008B13D000887
:1000400077020008770200087702000877020008AC
:10005000770200087702000877020008770200089C
:10006000770200087702000877020008770200088C
:10007000770200087702000877020008770200087C
:1000800077020008770200087702000800000000ED
:1000900000000000000000000000000077020008DF
:1000A00077020008693E000877020008770200081E
:1000B000770200087702000877020008770200083C
:1000C000770200087702000877020008770200082C
:1000D000770200087702000895440008000000003D
:1000E000770200087702000877020008000000008D
:1000F000000000000000000000000000770200087F
:10010000000000007702000877020008770200086C
:1001100000000000000000000000000000000000DF
:1001200077020008770200087702000877020008CB
:10013000770200080000000000000000000000003E
:10014000000000000000000000000000770200082E
:10015000770200087702000877020008770200089B
:10016000770200087702000800000000000000008D
:10017000000000000000000000000000000000007F
:1001800000000000770200080000000000000000EE
:10019000770200087702000800F002F800F04FF83C
:1001A0000AA090E8000C82448344AAF10107DA45D2
:1001B00001D100F044F8AFF2090EBAE80F0013F0D5
:1001C000010F18BFFB1A43F001031847E45F00005A
:1001D00004600000103A24BF78C878C1FAD85207EA
:1001E00024BF30C830C144BF04680C6070470000B1
:1001F0000023002400250026103A28BF78C1FBD830
:10020000520728BF30C148BF0B607047662905F010
:10021000F986002070471FB505F0DFFE00F06CFC8A
:1002200004000020002105F0B7F8401C60600020A9
:10023000002105F09BF8E0601FBD10B510BD00F077
:10024000CFFD1146FFF7E7FF04F06AF901F078F8F7
:1002500003B4FFF7F2FF03BC01F0D0F80948804770
:1002600009480047FEE7FEE7FEE7FEE7FEE7FEE798
:10027000FEE7FEE7FEE7FEE704480549054A064BB0
:1002800070470000553E000899010008D80300207F
:10029000D8090020D8050020D805002053EA020C18
:1002A00000F069802DE9F04B4FF00006002B1FBFD6
:1002B000B3FA83F503FA05F424FA05F65E4012BF9B
:1002C0001643B2FA82F502FA05F4C5F120051EBF05
:1002D00022FA05FC44EA0C04203556EA044C4FEAA5
:1002E000144418BF641C4FF000084FF000099042FE
:1002F00071EB030C39D3002919BFB1FA81F701FA68
:1003000007F6B0FA80F700FA07F6C7F120071EBF1C
:1003100020FA07FC46EA0C062037B6FBF4FCA7EBF4
:100320000507103F07F01F0BCBF120062CFA06F64D
:100330000CFA0BFB44BFB3460026202FA4BF5E4639
:100340004FF0000B5BEA060C08BF4FF0010B19EBF6
:100350000B0948EB0608ABFB027C06FB02CC0BFB4F
:1003600003CCC01B71EB0C01C1E70B4602464146B2
:100370004846BDE8F08B13B5084318BF4FF0FF3077
:100380000146AFF30080BDE81C4070470FB41CB5B8
:10039000084B06AA7B4469460090059800F0F7FADE
:1003A00004460020694600F005FB20461CBC5DF8B1
:1003B00014FB00001D0600002DE9F0474FF0000A75
:1003C00089460446C0F820A02046E16888470028F6
:1003D00076D0252806D0D4E901219047206A401C18
:1003E0002062F1E7E168204600258847C4F81CA098
:1003F00006460027C4F818A02A2E09D0304604F07B
:1004000066FF38B304EB8708303EC8F8186019E07F
:1004100059F8041B204604EB87029161E168884784
:10042000012F064618D1E069002820DA25F02005C2
:100430001DE0D8F8180000EB800006EB40003038D3
:10044000C8F818002046E1688847064604F03FFFD8
:100450000028EED1012F0AD02E2E08D12046E168C7
:1004600088477F1C0646022F45F02005C4DBA069A3
:10047000002803DA404245F00105A061E80701D0F9
:1004800025F01005B6B1A6F14100192802D8203692
:1004900045F400654A463146204625604D46FFF743
:1004A000B5FE58B1012806D0ED1D25F0070000F17A
:1004B000080989E704E005F1040985E730468AE781
:1004C000206ABDE8F08770B5064600F03DF8046884
:1004D000054630460A22002100F0CAFA2C6070BDA1
:1004E000401ECAB210F8011F8A4202D00029F9D179
:1004F000002070474FF0000200B513469446964620
:10050000203922BFA0E80C50A0E80C50B1F1200126
:10051000BFF4F7AF090728BFA0E80C5048BF0CC0D4
:100520005DF804EB890028BF40F8042B08BF704732
:1005300048BF20F8022B11F0804F18BF00F8012BA4
:100540007047704770477047004870471800002098
:1005500010B5FFF7F9FF006810BD10B50446FFF7AE
:10056000F3FF046010BD2DE9FF4F0C461E464FF00F
:10057000FF378BB0D2E90001DDF860800A908A462F
:10058000C1F30A5505B93D46002108464FF0000069
:10059000BAF1000F00F4400005DA00EB80004FF4E0
:1005A000400101EA50004FEA9059B9F1010F00DD16
:1005B000B9460A9850EA4A000ED044F61050A5F207
:1005C000FF3545432F14B8F1000F1ED07542291E88
:1005D0001EDDC9F100021CE0B8F1010F4FF0000070
:1005E00001D0302103E0F24305E02154401CB04229
:1005F000FBDB30460022002121540B99C1F8088012
:10060000C1E900200FB0BDE8F08FBD1B6D1CDEE717
:100610004A4600DA694206A800F070FB06AB93E890
:10062000070003AB83E8070050460A9904F0D0F8AE
:100630008DE80700A0F500501F3800900398002DAA
:100640000ADD42F21F014A460844002303A9039031
:10065000684604F07BFB09E0A0F500504A461F38CD
:10066000002303A90390684604F09AFB8DE8070075
:100670000004000C03D04FF0FF30410800E01046AA
:10068000B8F1000F03D00022009215461EE0751E3F
:1006900005D400F035FA303262556D1EF9D5B346F7
:1006A0000122084302D000227F1C04E02078302879
:1006B00001D100227F1E002A099784D01DE0112D50
:1006C00007DA00F01DFA303262556D1C50EA010263
:1006D000F5D1084302D00098C8B10EE00021681E91
:1006E00005E0235C625C63542254401E491C814235
:1006F000F7DBAB46A81B401E0990002004F80B0056
:100700000B98099AC0F80880C0E9002B7AE71126F7
:100710004FF0000857E72DE9F04F88460446D21DF8
:1007200022F0070191B0D1E90001CDE90A0104F0FE
:1007300083FC02460B98C00F01D02D2007E02068F3
:10074000810701D52B2002E0202101EAC000032A05
:10075000099001D0072A05DB03464146204600F0F8
:100760001DFA0BE12078800601D5E06900E0062043
:10077000B8F1650F814606D0B8F1660F18D0B8F110
:10078000670F70D131E00020B9F1110F009001DB4B
:10079000112301E009F101030AAA01A90CA8FFF73E
:1007A000E2FEDDE90C70002609F10105834647E011
:1007B00001204B4600904FF000470AAA01A90CA85F
:1007C000FFF7D1FEDDE90DB00C995D46002610B9AA
:1007D00009F101000D18B9EB050003D4C0F1FF3693
:1007E00009F10105A5EB09002BE0B9F1010F01DAD0
:1007F0004FF001090020B9F1110F0090484601DDCA
:10080000112300E003460AAA01A90CA8FFF7ABFEDA
:10081000DDE90C704D4600268346207800070AD497
:10082000AB4500DA5D4601A8012D04DD411911F840
:10083000011C302907D04F4502DA17F1040F04DA02
:10084000012082460FE06D1EEEE7002F02DCED1B5B
:100850003E4403E0781CA84200DD7D1CB81B00F17B
:10086000010A4FF000472078000703D4AA4501DBB6
:100870004FF0FF3A0021B7F1004F0DF143088DF81A
:10088000431024D002202B23002F01DA7F422D2396
:100890000A21021EA0F1010000DC5FB197FBF1FC10
:1008A00097FBF1F201FB1C7C17460CF1300C08F8A9
:1008B00001CDEEE7A8F1010003702188090501D5FB
:1008C000452100E06521A0F1010800F8011C09980C
:1008D0000FA9A1EB0807FF1D00B10120411901EB91
:1008E000EA70A1693844081A401EA0612078C00649
:1008F00002D42046AFF30080099828B1D4E9012141
:100900009047206A401C20622078C00622D52046ED
:10091000AFF300801EE0002E04DBB34502DD01A82A
:10092000805D00E03020D4E901219047206A401C1E
:100930002062761CAAF101005FEA000A0AD100F0E9
:10094000DBF8C0680168405CD4E901219047206A67
:10095000401C2062281EA5F10105DCDC07E0D4E97B
:10096000012118F8010B9047206A401C2062381EB4
:10097000A7F10107F3DC2046AFF30080032011B09C
:1009800041E6000001694A1C02610878704700B521
:100990008FB0CDE901310021059105497944CDE9B8
:1009A000031011466846FFF707FD0FB000BD0000B9
:1009B000E5FFFFFF0A6802F8010B0A6070470000BC
:1009C0000FB40B0010B54FF000048AB00FA90091CE
:1009D0000E99CC60234C7C44234A7A44CDE90642EC
:1009E00000D004236FF00042CDE901321F4A7A445F
:1009F0006B4608920246002005F066FB0AB010BC68
:100A00005DF814FBF0B507464FF0FF301E46154663
:100A10000C463B4685B06A460091CDE9010131465E
:100A20000020049004A8FFF7CBFF04990346601848
:100A300025B109B1024600E022462A6000290ED005
:100A4000002B02DD0099814209D03B466A463146BF
:100A5000001B0094CDE9010404A8FFF7B1FF05B025
:100A6000F0BD0000430200005D020000990100009B
:100A70002DE9F04791460F4680460446002614F8BB
:100A8000015B2DB100F030F80068405DC007F6D181
:100A90002B2D02D02D2D18D0641E4A4639462046F3
:100AA00000F0DCF827B13968A14201D1C7F8008015
:100AB0004FF0020471050BD54042002803DDFFF71B
:100AC00043FD0460A007BDE8F08746F48066E4E7D4
:100AD0000028F8DAFFF738FD04606FF00040F2E715
:100AE000004870471800002010B500F005F8001D00
:100AF00010BD00BFA5480000004870473800002026
:100B000030B5B0F10A0271F100034FEA900E4EEADF
:100B1000817EB0EB0E0061EB91014FEA101E4EEAB0
:100B2000017E10EB0E0041EB11114FEA102E4EEA40
:100B3000016E10EB0E0041EB11214FEA104E4EEA10
:100B4000014E10EB0E0041EB1141401841F1000144
:100B50004FEAD00040EA41704FEAD1014FEA8104E8
:100B600044EA907410EB800544EB01046D1944EBEA
:100B70000404521BA3414FF0000348BF0A3200D5C2
:100B800030BD401C41F1000130BD10B50446FFF7F7
:100B9000ABFF0068005D00F0010010BD2DE9F041E1
:100BA0001F46044603260168072A01F4006004DB9F
:100BB00008B116A505E016A503E008B115A500E0EB
:100BC00015A521F010002060A069C01EA0610FB122
:100BD000401EA0612046AFF300804FB1D4E901214F
:100BE00038469047206A401C2062C01C206206E004
:100BF000206AFAE7D4E9012115F8010B9047761E27
:100C0000F8D22046AFF30080BDE8F0814E414E009F
:100C10006E616E00494E4600696E6600426842B1E0
:100C2000016811F8013B23B1521EC0E900121846B9
:100C300070470121C160881E704742685AB1C3687D
:100C4000016843B983688B4205D0491E521CC0E934
:100C50000012002070474FF0FF3070472DE9F05F21
:100C6000824615468B4600270AF10104B9460078F2
:100C7000302801D09DB113E014F8010B012778282A
:100C800003D0582801D045B10AE00DB1102D07D18D
:100C9000002714F8010B102502E0082500E00A25C2
:100CA0000026B0460EE005FB080005FB06F1012713
:100CB0001FFA80F801EB1046B6F5803F00D3B94625
:100CC00014F8010B294600F0B0F80028EBDABBF16C
:100CD000000F05D00FB1641E00E05446CBF8004071
:100CE000B9F1000F06D0FFF72FFC02210160C81EEA
:100CF000BDE8F09F48EA0640FAE700002DE9F0471A
:100D0000814616468AB0354878440DC88DE80D00F6
:100D100032487844801C03AC0DC884E80D0041F6CD
:100D20009B300844372190FBF1F290FBF1F5A5F1DF
:100D3000800501FB12041B3C02D56442012000E047
:100D40000020DFF898A080460027FA44AAF1BE0AE6
:100D50000EE0E0070AD03246684607EB4701012360
:100D60000AEB810104F01CF88DE8070064107F1C79
:100D7000002CEED1194F7F44AE3F19E0E80715D0A3
:100D800007EB04100DF1180A90E80E008AE80E0037
:100D9000C068F04201D1981908903246012306A993
:100DA00003A803F0FDFF03AB83E807006D10641C8C
:100DB000002DE3D14FF0010332466946B8F1000F30
:100DC00003A802D003F0C2FF01E003F0E9FFC9E984
:100DD0000001C9F808200AB0BDE8F087745400008B
:100DE0007546FFF77DFEAE4605006946534620F086
:100DF0000700854618B020B5FFF73EFABDE8204051
:100E00004FF000064FF000074FF000084FF0000BC6
:100E1000AC46ACE8C009ACE8C009ACE8C009ACE835
:100E2000C00921F007018D4670473A2800D23038BA
:100E300020F02002412A01D3A2F13700884201D3D9
:100E40004FF0FF30704700002DE9FF4F06468BB092
:100E50000878FF2806D0491C2D2805D000244FF023
:100E6000000908E000200CE00124F8E709EB890301
:100E7000491C00EB43090878FF28F7D114B1C9F1E8
:100E800000008146107800252C46AA4629462D28C8
:100E900001D02B2804D1521C2D2813D000208246CB
:100EA0008B461078FF280FD04FF0000C0A21521CFF
:100EB000A5FB017804FB018105FB0C11C5194BEB67
:100EC0000104EEE70120EAE7002108464FF00000A8
:100ED000BAF1000F02D000EB80004008C0F3815748
:100EE000012F01DD4FF0FF370E9955EA040009EBA1
:100EF00001080BD04FF0020918F5FA7F16DA4FEA15
:100F0000CA70002F706008DD012007E04FEACA7048
:100F1000C6E900B00FB0BDE8F08F00203060FFF7E9
:100F200013FBC0F800901821084616E0B8F5FA7FC8
:100F300018DD002F02DAF748784401E0F6487844DB
:100F4000D0E90010C6E9001040EACA707060FFF7EF
:100F5000FBFAC0F80090142108460FB0BDE8F04F2E
:100F600005F04DB8002108464FF00000B8F100012F
:100F7000099002DAC7F1000200E03A4601DAC8F14E
:100F8000000106A8FFF7BAFE06AB93E8070003AB23
:100F900083E8070044F23E005BEA040100905846F3
:100FA00004D144F21E012C465D460091210C090437
:100FB000014306D10099240444EA15442D04103954
:100FC000009104F07F41014306D10099240244EAD4
:100FD00015642D020839009104F07041014306D1D7
:100FE0000099240144EA15742D01091F009104F0B1
:100FF0004041014306D10099A40044EA9574AD0034
:10100000891E009104F00041084304D100986D1935
:101010006441401E00904FF001033A466846B8F123
:10102000000FCDE9014503A902DD03F0CEFE01E08A
:1010300003F0A1FEBAF1000F04460D4601D084F082
:101040000044002108464FF00000099940F2FF7764
:10105000484010F00C0F07D124F00040284303D083
:10106000C4F30A50B84212D1FFF76EFAC0F80090EC
:10107000C4F30A50B8420AD1A8487844D0E9001015
:10108000C6E9001004F000410843706042E7C6E979
:1010900000543FE72DE9FF4F1F464FF0000A4FF085
:1010A000FF38454691B0D7E90146CDF83CA0FFF79F
:1010B00023FDC0680168405C1090B96912986D1CEE
:1010C0008847396A814688470028F6D1B9F1FF3F41
:1010D0000AD0002E24F4D06411DDB9F12B0F08D012
:1010E000B9F12D0F0BD102E0404615B013E744F4DF
:1010F0008064B96912986D1C8847761E8146600528
:1011000004A901D52D2000E02B20002E01F1010BB8
:101110000DF130088DF810003FDDB9F1690F08D0EE
:10112000B9F1490F05D0B9F16E0F02D0B9F14E0FE8
:101130001CD13B4601A8009580E85002DDE912125F
:101140006FF0020004F0C4FFC11CCED10EE0B969FB
:1011500012986D1C884781461398761E44F40074DB
:1011600005600F98401C002E0F9016DDB9F1300F6E
:10117000EDD0B9F1780F02D0B9F1580F0DD10F9819
:1011800001280AD13B46CDE90054DDE91212001FC7
:10119000029604F09BFFC11CA7D1109989453ED14E
:1011A00044F0800406E01399681CAAF1010A44F493
:1011B00000740860B9696D1C1298761E8847302843
:1011C0008146F0D02BE01099894505D1200603D443
:1011D000761E44F0800418E0484604F078F808B31E
:1011E000761E0DF123029345A9F1300044F40074FA
:1011F00006D20BF8010B200607D5AAF1010003E087
:10120000200602D40AF101008246A00502D51399F6
:10121000681C0860B96912986D1C88478146002EC9
:10122000D1DC53E0002E51DDB9F1650F02D0B9F1E8
:10123000450F4BD1A00549D5B9696D1C1298761E92
:1012400024F440748847002E81460CDD2B2804D0FE
:10125000B9F12D0F07D144F48074B96912986D1C4F
:101260008847761E8146E00501D52D2100E02B211F
:1012700008F8011BCDF8008021E0761E0DF1390140
:10128000884544F400740CD2A9F1300010F0FF003E
:1012900088F8000002D10099884509D908F10108B1
:1012A00006E0E00501D51E4801E042F20F708246DB
:1012B000B96912986D1C8847814613980560002E05
:1012C00004DD484604F003F80028D6D1F9691298E5
:1012D0008847FF2053468BF8000088F80000002064
:1012E0000A900B9004AA0CA90AA8FFF7ADFDA0056F
:1012F00002D46FF00100F8E614F0240F12D0E007DA
:101300001CD13868DDE90A12031D3B600068C0E9A2
:10131000001213E09C5200008E5200005251000057
:10132000F1D8FFFF0AA9684603F0BEFFE00705D128
:101330003868009A011D3960006802602846D4E6CA
:1013400010B50446AFF300802046BDE81040FEF71C
:101350007FBF00000000000030B44FF0013C50F8A7
:10136000042B51F8043BCCFA52F4D51A20D1FCB925
:1013700050F8042B51F8043BCCFA52F4D51A17D18B
:10138000B4B950F8042B51F8043BCCFA52F4D51AF6
:101390000ED16CB950F8042B51F8043BCCFA52F43E
:1013A000D51A05D1002CDAD030BC4FF000007047C0
:1013B00029BAB1FA81F111F01801D1F1200084406D
:1013C000F2D1CA40CB4012F0FF0213F0FF0330BC51
:1013D000D01A7047B2F120030AD5C2F1200301FAF6
:1013E00002F120FA03F341EA030100FA02F0704728
:1013F00000FA03F14FF00000704700000149182087
:10140000ABBEFEE7260002002DE9FF4F1F464FF05E
:101410003C0987B04FF00042DDE9141001F10108EA
:10142000DDF858A002EA4050039000200590834662
:10143000054604460490B969461E08988847AAF1F3
:10144000010A0290BAF1000F3BDD02982E2815D058
:101450001021FFF7EAFC00282EDB4FF0010B059965
:10146000014317D0B9F1000F0BDB4A46C117FFF754
:10147000B1FF05430C43A9F1040905E001200490E4
:101480000BE008B145F0010501200590049820B952
:10149000361D02E0049800B1361FB969089808F1BA
:1014A00001088847BBF1000FAAF1010A0290C9D0D8
:1014B0000999C1F80080C5E70298702808D0502823
:1014C00006D0F96908988847BBF1000F14D04FE0A7
:1014D000002002900120BBF1000F049009D0B969EF
:1014E000089808F101088847AAF10109B9F1000F2D
:1014F00007DCF969089888476FF001000BB0BDE878
:10150000F08F2B2804D02D280CD14FF0FF30049001
:10151000B969089808F101088847A9F10109B9F1EA
:10152000000FE6DD411CE4D00A21FFF77EFC002815
:10153000DFDB029908F1010801EB810100EB4100BA
:101540000290B969089888470A21FFF76EFC099A4A
:10155000A9F10109B9F1000FC2F8008001DD0028EE
:10156000E7DAF969089888470499029800FB016650
:1015700055EA040004D004F04041090002D006E01E
:10158000039898E0A40044EA9574AD00B61E04F0F8
:101590000041080002D16D196441761E159810F0C3
:1015A000240F03D04FF00B095C4803E04FF02809EB
:1015B0006FF07D008246564507DAAAEB06018944A2
:1015C000B9F1410F01DD4FF0410901200021A9F1DE
:1015D0000102FFF7FFFE024628400B462140084368
:1015E00001D0012100E00021501E029143F1FF31A2
:1015F00028402140084301D0012000E0002002994A
:10160000834651EA0B014FD0002108464FF00000FD
:10161000039900F4400039B100EB80004FF4400121
:1016200000EBD07001EA60008015012802DD4FF068
:10163000FF3000E013D0401C36D0029860B3BBF1FD
:10164000000F0CD14A4601200021FFF7C3FE2840BD
:101650002140084301D0012000E00020E0B101203A
:101660004A460021FFF7B6FE034640190A4661418B
:101670002D1A8C4111D3B9F1400F09DD159810F0E6
:10168000240F02D0AAF1340603E0AAF1170600E005
:10169000761C00254FF0004406E05B1E42F1FF324D
:1016A00020EA030521EA0204CAF10100B04206DA89
:1016B0001B49039808430190002000900EE0039A14
:1016C000C4F3D321E80A0A43164940EA44500A43C6
:1016D0003146CDE90002684603F0EFFD159810F0A1
:1016E000240F0BD01598C00715D13868DDE900121A
:1016F000031D3B600068C0E900120CE002A86946C7
:1017000003F0D2FD1598C00705D13868029A011D73
:101710003960006802604046F0E6000002FCFFFF0E
:101720000000F07F0000F03F2DE9FF4F92461D467C
:1017300085B04FF00041DDE9124BDDE914727F1EE8
:1017400001EA4B50414940F0FF4940EA01080021BD
:1017500022F020004928049102D04E2828D04CE0E5
:101760003BA0012607C88DE80700A9690698641CFC
:1017700088477F1E014606D41DF8060018B121F0E7
:10178000200181420BD0E96906988847032E34D0A6
:10179000082E32D06FF0010009B0BDE8F08F761C42
:1017A000032E01D0082EE0D1601CCAF80000DCE74F
:1017B000A9690698641C88477F1E2AD420F020005F
:1017C000412826D1A9690698641C88477F1E20D429
:1017D00020F020004E281CD1A9690698641C884777
:1017E0007F1E48F4002849F48009CAF8004001D45B
:1017F000282806D0E969069888475FEACB7012D09E
:1018000022E0A9690698641C88477F1E01D400283D
:1018100003DAE96906988847BCE72928F1D1641CF6
:10182000CAF80040E9E71BF0240F07D028680499A4
:10183000031D2B600068C0E9001805E02868021D40
:101840002A600068C0F800902046A5E70000F07FFD
:10185000494E46494E495459000000007047000067
:10186000FEE700007047000072B600BFFEE7000010
:1018700070B5866D044600F03DF994F835100229E4
:1018800025D105462068216C026822F0160202600C
:10189000426922F08002426109B9A16C19B1016864
:1018A00021F008010160016821F00101016000BF21
:1018B00020680068C0070ED000F01CF9401B062805
:1018C000F6D320206065032084F835000CE08020EA
:1018D0006065012008E0E06D3F2101FA00F0B06092
:1018E000012084F835000020002184F8341070BDF8
:1018F00090F83510022909D1052180F835100068CB
:10190000016821F0010101600020704780214165DC
:1019100001207047B0B5044600F0ECF8054640F2EF
:101920000C00C2F200000078611C18BF044400BF24
:1019300000F0E0F8401BA042FAD3B0BD2DE9F04F13
:1019400083B000F13E4202F1FF724FEAB22241F24F
:1019500000070192C4F2020707224FF0010E002592
:101960004FF0000A4FF00008B84208BF042200926E
:101970000AE000BF08F101080AF1040AB8F1100FEB
:1019800005F1020500F0A4800C680EFA08FB14EAC9
:101990000B09EFD04C6804F0030CACF1010EBEF162
:1019A000010F11D80322876802FA05F6CA68B74307
:1019B000AA403A4382604268C4F3001722EA0B024D
:1019C00007FA08F73A434260BCF1030F1CD0C26823
:1019D00003238E6803FA05F7BA4306FA05F73A437C
:1019E000BCF1020FC2600FD16FF0030202EA58028D
:1019F00002440AF01C060F23176A03FA06F40B6967
:101A0000A743B3403B431362026803234F68AB40D4
:101A10009A4307F00303AB401A4317F4403F4FF0DB
:101A2000010E0260A6D0002243F644030292C4F2E3
:101A300002031A6843F6004442F480421A601A68AE
:101A4000C4F2010402F480420292029A28F00302D6
:101A50004FF6084B2244CFF6FF7B52F80B300AF0CA
:101A60000C070F26BE4023EA060C019B009E042BA8
:101A700038BF1E4606FA07F747EA0C0342F80B3058
:101A8000A2684B6842EA090743F60C4CDE0258BFD5
:101A900022EA0907A760C4F2010CDCF800209E02CC
:101AA00042EA090758BF22EA0907CCF800706268C9
:101AB0009E0342EA090758BF22EA090767602268C5
:101AC000DB0342EA090358BF22EA0903236051E716
:101AD00003B0BDE8F08F0000426902EA01039143C0
:101AE00041EA034181617047002A08BF090481610E
:101AF0007047000040F2D030C2F20000006870472A
:101B000070B5B0B3044690F83D0028B9002084F8C1
:101B10003C00204600F0BCF8242084F83D002068FA
:101B2000016821F001010160016841F40041016098
:101B3000016821F40041016000F020FA48F2804180
:101B4000C0F21E0140F60012666888424FF00001A4
:101B5000C0F23D0248F2A16C4FF0000338BF0121F2
:101B60009042C0F2010C38BF0123664538BF0B46D6
:101B70000BB1012070BD4DF68361C4F21B31A0FB97
:101B800001122168930C4D68664525F03F0545EA32
:101B900092424A600A6A22F03F0C09D34FF49672CF
:101BA0005A4344F6D353C1F26203A2FB03239B09B9
:101BB0005A1C42EA0C020A6248F2A063CA69C0F2E7
:101BC00001039E424CF6FF7322EA030C0AD8013847
:101BD0007200B0FBF2F001306FF31F30042898BFA1
:101BE00004202BE0A368A0F1010E9BB119207043E3
:101BF000BEFBF0F00422013062F31F30000512D06A
:101C00009BB119207043BEFBF0F00422013062F357
:101C10001F3011E006EB4600BEFBF0F001306FF321
:101C20001F300005ECD1012008E006EB4600BEFBAA
:101C3000F0F001306FF31F3040F4004040EA0C0038
:101C4000C8610868D4E9072320F0C0001043184396
:101C50000860886848F2FF3204F10C0690434CCECD
:101C600018431043A5698860C86820F0FF0030431E
:101C70002843C860086840F0010008600020202167
:101C8000206484F83D10206384F83E0070BD00009D
:101C9000B0B586B000240594CDE9034445F2004177
:101CA0000068C4F2000188420294019401D006B099
:101CB000B0BD43F630050094C4F20205286840F038
:101CC00002002860286800F00200009000984FF49D
:101CD000407001901220CDE90204032004900420FA
:101CE000059001F5D83001A9FFF728FE0094286976
:101CF00040F400102861286900F40010009000985A
:101D000006B0B0BD40F20C0040F2D031C2F200008B
:101D1000C2F2000100780A681044086070470000B1
:101D200080B543F60040C4F20200016841F400713E
:101D30000160016841F480610160016841F48071D3
:101D40000160032000F060F80F2000F005F800F0BB
:101D50002BF8002080BD0000B0B540F20C02C2F2AA
:101D6000000240F200011278C2F200014FF47A73CF
:101D70000968B3FBF2F20446B1FBF2F1084600F049
:101D8000F7FA0F2C4FF001050CD858B94FF0FF307F
:101D900021460022002500F027F840F21000C2F290
:101DA000000004602846B0BD82B0002043F6400128
:101DB0000190C4F202014A6842F480424A604A68D3
:101DC00002F480420192019A0090086840F080502D
:101DD0000860086800F080500090009802B07047DA
:101DE00080B502F061FB80BD70B514460D46064615
:101DF00002F06AFB2946224601F0DCFC014630462F
:101E000002F06AFB70BD000080B502F077FB80BD78
:101E10002DE9F041002800F08B8043F60808C4F259
:101E200002080446D8F8F8030D4600F0070088427F
:101E300007D288F8F853D8F8F80300F00700A84252
:101E400076D12068810717D5410705D5D8F800104D
:101E500041F4E051C8F80010010705D5D8F800108A
:101E600041F46041C8F80010D8F80010A26821F0D1
:101E7000F0011143C8F80010C0073FD1D8F8F803AB
:101E800000F00700A84207D988F8F853D8F8F803FB
:101E900000F00700A8424BD12068410707D5D8F8C9
:101EA0000010E26821F4E0511143C8F80010000767
:101EB00008D5D8F80000216920F4604040EAC1004C
:101EC000C8F8000000F07EF8D8F8001046F298122A
:101ED000C1F30311C0F60002515C40F2000220FA87
:101EE00001F140F21000C2F200000068C2F20002EC
:101EF0001160FFF731FF0020BDE8F0816068811EAE
:101F0000022907D258F8081C89015CBF0120BDE8EE
:101F1000F08110E0012807D158F8081C89035CBF44
:101F20000120BDE8F08106E058F8081C890702D4BA
:101F30000120BDE8F081D8F8001021F0030108432A
:101F4000C8F80000FFF7D6FD064641F2883700BF0B
:101F5000D8F80000616800F00C00B0EB810F8DD064
:101F6000FFF7C8FD801BB842F2D90320BDE8F0811D
:101F700040F20000C2F200000068704780B5FFF731
:101F8000F7FF43F60801C4F20201096846F2A812FD
:101F9000C1F38221C0F60002515CC84080BD000040
:101FA00080B5FFF7E5FF43F60801C4F202010968B6
:101FB00046F2A812C1F34231C0F60002515CC8409B
:101FC00080BD000010B543F60404C4F2020460684A
:101FD00000F00C0008280AD0042819BF42F2004083
:101FE000C0F2F40047F64000C0F27D1010BD20683A
:101FF00021682368490247F64001C0F27D1100F0D4
:102000003F02C3F388105CBF42F20041C0F2F4010A
:10201000A1FB00010023FEF741F921680222C1F370
:10202000014102EB4101B0FBF1F010BD2DE9F0419F
:1020300082B0002800F09F800446007843F6000636
:10204000C007C4F2020641D0B06800F00C000428BA
:1020500005D13068800339D56068B8BB8BE0B068C3
:1020600000F00C00082802D170684002F1D46568C5
:10207000B5F5803F06D03068B5F5A02F06D140F405
:1020800080203060306840F4803005E020F48030FB
:102090003060306820F480203060FFF72BFD002D89
:1020A000054610D03068800310D4FFF723FD401B95
:1020B0006428F7D922E100BFFFF71CFD401B64280C
:1020C0004FF0030054D830688003F5D4207880079F
:1020D0001AD5B06810F00C0F09D0B06800F00C00F1
:1020E000082840F08C807068400200F188803068D9
:1020F000800702D5E06801283DD13068216920F0D1
:10210000F80040EAC10030602078000737D420781A
:1021100040074AD4A56955B3B06800F00C00082800
:1021200040F0A080012D26D07068E16900F48002A3
:102130008A4220D1216A00F03F028A421BD147F631
:10214000C071626A0140B1EB821F14D1A16A4FF6DF
:10215000FF73C903994300F44032A1F580318A42EC
:1021600009D1E16A00F07060B0EB016F03D100208B
:1021700002B0BDE8F081012002B0BDE8F0816069E5
:10218000002840F20000C4F247205AD00121C0F8D4
:10219000801EFFF7AFFC0546706F8007B7D4FFF7CE
:1021A000A9FC401B0228F7D9A8E0306C4FF00008CA
:1021B000C0000CD4CDF80480306C4FF0010840F022
:1021C00080503064306C00F080500190019847F2EC
:1021D0000007C4F200073868C00525D4386840F409
:1021E00080703860FFF786FC054600BF3868C00580
:1021F0001AD4FFF77FFC401B0228F7D97EE0E06885
:10220000002851D00020C4F2472001210160FFF7CF
:1022100071FC0546306880073FF56FAFFFF76AFC39
:10222000401B0228F6D969E0A568012D05D0306F62
:10223000052D4DD140F004003067306F40F00100B3
:102240004CE00021C0F8801EFFF754FC054600BF9B
:10225000706F80077FF55BAFFFF74CFC401B0228D7
:10226000F6D94BE00027C4F2472700203866FFF775
:1022700041FC022D05460BD13068800156D5FFF791
:1022800039FC401B02284FF00300F5D970E700BF6E
:10229000306880017FF56BAFFFF72CFC401B0228F4
:1022A0004FF00300F4D963E70020C4F24720002177
:1022B0000160FFF71FFC0546306880077FF524AFFB
:1022C000FFF718FC401B02284FF00300F4D94FE73A
:1022D00020F001003067306F20F004003067FFF716
:1022E00009FC002D054641F2883713D0306F800776
:1022F00013D4FFF7FFFB401BB842F7D9032002B00D
:10230000BDE8F081FFF7F6FB401BB8424FF0030039
:102310003FF62EAF306F8007F4D4B8F1000F3FF4D2
:10232000F9AE306C20F080503064F3E604F11C0507
:102330002FCD084340EA8210D9034FF6FF72914334
:10234000A1F5803140EA05600843706001203866DD
:10235000FFF7D0FB044600BF306880013FF507AFB0
:10236000FFF7C8FB001B02284FF00300F4D9FFE67B
:1023700080B501F005FD80BD70470000704700008A
:1023800010B590F83C20012A4FF0020240D0012302
:1023900080F83C3080F83D200268D2F804E0D2F8A2
:1023A00008C00C682EF07003234340F6FF34C4F2DB
:1023B0000004A24253600FDCB2F1804F1DD040F206
:1023C0000043C4F200039A4217D040F60003C4F25F
:1023D00000039A4211D015E040F60043C4F2000316
:1023E0009A420AD044F20003C4F201039A4204D094
:1023F0000023C4F201039A4204D149682CF08003FF
:10240000194391600121002280F83D1080F83C20A2
:10241000104610BD002804BF0120704710B50446C7
:1024200090F83D0028B9002084F83C00204600F0D8
:102430001FF8022084F83D002068211D01F01CFDDA
:10244000012084F8460084F83E0084F83F0084F8B8
:10245000400084F8410084F8420084F8430084F886
:10246000440084F8450084F83D00002010BD0000C1
:1024700080B582B0006840F20041C4F20001884299
:102480001DD00021C4F20101884227D10020019013
:1024900043F64000C4F202004168002241F001010D
:1024A00041604068012100F001000190019819206D
:1024B000FFF79AFC1920FFF793FC02B080BD0020C3
:1024C000009043F64000C4F20200016841F00201AE
:1024D0000160006800F002000090009802B080BD2A
:1024E00090F83D1001291CBF01207047022180F89F
:1024F0003D10006840F6FF32C168C4F2000290420D
:1025000041F00101C1600FDCB0F1804F1DD040F2FD
:102510000041C4F20001884217D040F60001C4F225
:102520000001884211D017E040F60041C4F20001DA
:1025300088420AD044F20001C4F20101884204D06A
:102540000021C4F20101884206D1816801F007012F
:10255000062904BF00207047016841F001010160B5
:102560000020704710B5044690F83C0001284FF059
:10257000020008BF10BD012284F83C2084F83D0011
:1025800020684FF6777382689A4382600A684F2A00
:102590000FDC1F2A22DD202A23D0302A21D0402A16
:1025A0004DD14B68CA68194601F0BAFD2068402138
:1025B0003BE06F2A17DDB2F5005F20D0B2F5805FF7
:1025C0002AD0702A3BD1D1E9012CCB68614601F0B9
:1025D000D7FC2068816841F077011AE00AB1102A1F
:1025E0002DD1114621E0502A18D0602A27D14B68FE
:1025F000CA68194601F0A6FD2068602115E0D1E9FE
:10260000012CCB68614601F0BBFC2068816841F475
:102610008041816000200BE0002009E04B68CA681F
:10262000194601F07DFD2068502101F0B5FC002025
:10263000012184F83D10002184F83C1010BD0120D8
:10264000F6E70000002804BF012070472DE9F0479D
:10265000044690F83D000D4628B9002084F83C005F
:10266000204600F049F8022084F83D00206844F23A
:102670000702816891438160211D01F0FDFB206804
:102680004FF6FF7881688269D0F820C0D5E9003E16
:10269000D5E9026A43EA0109AB6922EA080246EA7F
:1026A00003234FF6FC46B343D5E9076742EA0A0223
:1026B00029691A4342EA062242EA01112CF0AA02D1
:1026C0006B6942EA0E0241EA073142EA0312C0F89E
:1026D000089081610262012084F8460084F83E007F
:1026E00084F83F0084F8420084F8430084F83D00F9
:1026F0000020BDE8F087000080B586B00021CDE95C
:102700000411CDE90211006840F60002C4F2000293
:102710009042019122D0B0F1804F48D1002043F681
:1027200030010090C4F202010A6942F001020A611C
:102730000A6902F001020092009A0090086840F0D5
:10274000010008600868012100F001000090009875
:10275000032001900020C4F202001FE043F6300085
:102760000091C4F20200026942F0040202610269AF
:1027700002F004020092009A0091016841F0020107
:1027800001600068022100F0020000900098C02063
:1027900001900020C4F2020000F580600222029243
:1027A0000022CDE90322059101A9FFF7C7F806B081
:1027B00080BD000010B5044690F83E0094F83F201C
:1027C00094F8423094F843C0042907D089B901280D
:1027D0004FF0010008BF012B23D010BD012A4FF09C
:1027E000010008BFBCF1010FF7D1022084F83F00BF
:1027F00012E001284FF0010008BF012AEDD1012BA2
:10280000EBD1BCF1010F18BF10BD022084F83E00CF
:1028100084F83F0084F8420084F84300042907D17B
:102820000EE0022084F83E0084F84200042907D01C
:1028300009B9002105E020680021012201F08EFB8A
:1028400004212068012201F089FB2068016841F021
:1028500001010160002010BDB0B5044690F83E00B3
:1028600094F83F5094F8423094F84320042907D05C
:1028700081B901284FF0010008BF012B2AD0B0BD5B
:10288000012D4FF0010008BF012AF8D1022084F881
:102890003F0011E001284FF0010008BF012DEED1EB
:1028A000012BECD1012A18BFB0BD022084F83E00F4
:1028B00084F83F0084F8420084F84300042910D0D3
:1028C000C1B920680021012201F048FB20680225DF
:1028D0000C3020E0022084F83E0084F842000429F5
:1028E000EED1206804210122042501F037FB206885
:1028F0000C3010E020680021012201F02FFB20683D
:1029000004210122042501F029FB206850F80C1F46
:1029100041F00201016001682943016020680168FB
:1029200041F0010101600020B0BD000070470000CF
:10293000B0B504460068C168026902EA0105A9074A
:102940001DD4680731D4280747D4E8065CD4E807CB
:1029500073D128067BD4680606D520686FF0400145
:102960000161204600F0C0F9A80658BFB0BD20683C
:102970006FF0200101612046FFF700FDB0BD6FF050
:1029800002010161012121778069800703D020467F
:10299000FFF7CCFF05E0204600F092F8204600F05B
:1029A0000DF9002020776807CDD520686FF004016D
:1029B000016102212177806910F4407F03D0204615
:1029C000FFF7B4FF05E0204600F07AF8204600F05B
:1029D000F5F8002020772807B7D520686FF00801A8
:1029E000016104212177C069800703D02046FFF7E9
:1029F0009DFF05E0204600F063F8204600F0DEF879
:102A000000202077E806A2D520686FF01001016150
:102A100008212177C06910F4407F03D02046FFF7DA
:102A200085FF05E0204600F04BF8204600F0C6F890
:102A300000202077E8073FF48CAF20686FF0010199
:102A40000161204600F026F928067FF584AF206852
:102A50006FF0800101612046FFF78EFC68067FF56C
:102A600083AF7AE780B586B000220592CDE90322D4
:102A700040F200410068C4F20001884202920192D3
:102A800001D006B080BD43F630000092C4F20200CF
:102A9000036843F001030360006800F00100009048
:102AA0000098C02001900220CDE90202CDE9042067
:102AB00001F5FE3001A9FEF741FF06B080BD000020
:102AC00070470000B0B5044690F83C00012804BFF0
:102AD0000220B0BD0D464FEAB2010120032984F85F
:102AE0003C0037D8DFE801F0020A122220682946AC
:102AF00001F05AFA206850F8181F0EE020682946A5
:102B000001F082FA206850F8181F16E02068294664
:102B100001F0AEFA206850F81C1F41F00801016076
:102B2000016821F00401016029690FE0206829464D
:102B300001F0D2FA206850F81C1F41F400610160D6
:102B4000016821F48061016029690902026811436A
:102B500001600020002184F83C10B0BD002804BFB3
:102B60000120704710B5044690F83D0028B90020B8
:102B700084F83C00204600F01FF8022084F83D0055
:102B80002068211D01F078F9012084F8460084F8BE
:102B90003E0084F83F0084F8400084F8410084F847
:102BA000420084F8430084F8440084F8450084F827
:102BB0003D00002010BD000070470000704700007D
:102BC000B0B5044641B1082909D0042914BF04F165
:102BD000410004F13F0004E004F13E0001E004F193
:102BE0004000007801281CBF0120B0BD022041B187
:102BF000082909D0042914BF84F8410084F83F0053
:102C000004E084F83E0001E084F840002068442598
:102C10000122C4F2010501F0A1F92068A5F14401E7
:102C2000884203D1296841F40041296040F6FF3110
:102C3000C4F2000188420FDCB0F1804F1DD040F299
:102C40000041C4F20001884217D040F60001C4F2EE
:102C50000001884211D017E040F60041C4F20001A3
:102C600088420AD044F20001C4F20101884204D033
:102C70000021C4F20101884206D1816801F00701F8
:102C8000062904BF0020B0BD016841F001010160C8
:102C90000020B0BDB0B500680021C4F20101884237
:102CA00018BFB0BD40F2E804C2F20004204600F0B4
:102CB0005BFC40F2A815C2F20005284600F054FC67
:102CC00040F27800C2F2000000F0CEFD40F2381071
:102CD000C2F2000000F0C8FD204600F0ADFC28461E
:102CE00000F0AAFCB0BD0000704700007047000073
:102CF0007047000070B582B0036804461868D96850
:102D00005D6900F02F02202A01F0200205D122B1D6
:102D1000204601F065FA02B070BD5FEA007C08D081
:102D200005F0010E11F4907F8EF001054FD1002DBA
:102D30004DD0226B0840C1063FD5012A3DD100206D
:102D400001901868019058680190019858694006F0
:102D500000F19E80A08DE18DE28D002A1CBF401AFB
:102D60005FEA004102D102B070BD00BF216851E8A6
:102D7000031F226821F4907142E80313002BF5D160
:102D8000216851E8051F226821F0010142E805137E
:102D9000002BF5D1202184F842100021216300BFCF
:102DA000216851E8031F226821F0100142E8031353
:102DB000002BF5D102216163AEE0010600F1AE8087
:102DC0004006D0D5204601F0FFF902B070BDC30720
:102DD00018BF11F4807303D0636C43F00103636484
:102DE00000F00406012383EA96062E4303D1666CA5
:102DF00046F00206666400F0020683EA56032B439F
:102E000003D1636C43F00403636452EA0E0218BFFB
:102E10000122BCF1000F04D51AB1626C42F0080225
:102E20006264626C002A9ED00840800602D520466B
:102E300001F0D6F920684069616C00F0400001F0B3
:102E40000801401800F08480204601F095F92068C0
:102E50004069400677D500BF206850E8050F21681B
:102E600020F0400041E80502002AF5D1E06B00287F
:102E700069D044F26911C0F600010165FEF738FD22
:102E800000283FF470AFE06B016D884702B070BD61
:102E9000E06B016849688AB2002A44D0A38D9A4247
:102EA00041D2E185C069B0F5807F30D0206850E81C
:102EB000030F216820F4807041E80302002AF5D155
:102EC000206850E8050F216820F0010041E8050264
:102ED000002AF5D1206850E8050F216820F0400055
:102EE00041E80502002AF5D1202084F842000020A4
:102EF000206300BF206850E8030F216820F0100015
:102F000041E80302002AF5D1E06BFEF7B1FC022094
:102F10006063A08DE18D401A81B20FE0204601F080
:102F20004BFA02B070BDA18D91427FF41CAFC06915
:102F3000B0F5807F7FF417AF022060632046FFF773
:102F4000D5FE02B070BD2046FFF7D2FE02B070BDC4
:102F50002046FFF7CDFE0020606402B070BD000087
:102F6000002804BF0120704710B5044690F84100C6
:102F700028B9002084F84000204600F021F82420E1
:102F800084F841002068C16821F40051C1602046E6
:102F900001F08AF92068016921F4904101614169D9
:102FA00021F02A014161C16841F40051C160002053
:102FB0002021606484F8411084F84210606310BDE1
:102FC00080B586B000220592CDE9032244F200418B
:102FD0000068C4F2000188420292019201D006B05A
:102FE00080BD43F630000092C4F20200036943F44E
:102FF00000330361036903F400330093009B0092E4
:10300000036843F001030360006800F001000090D2
:1030100000980C2001900220CDE9020203200490C8
:103020000720059001F5DE3001A9FEF787FC262078
:1030300002210022FEF7D8FE2620FEF7D1FE06B0C0
:1030400080BD000010B590F84230202B1CBF02203C
:1030500010BD00294FF0010418BF002A01D12046FD
:1030600010BD0024046301F08DF9204610BD00005E
:10307000F0B581B02DED028B006844F20046C4F239
:103080000006B04240F0858040F2C830C2F2000035
:1030900000780D2801D00A2835D140F2CC37C2F291
:1030A0000007396840F2B430C2F2000000254554F0
:1030B0002C21FDF715FAA8B3044640F2B430C2F251
:1030C000000004F8015B02F04BF851EC100B02F029
:1030D00079F90546204602F043F851EC100B02F056
:1030E00071F90446284602F0DDFE41EC100B40F277
:1030F000E800C2F2000000F057FB204602F0D2FECA
:1031000041EC180B28E040F2CC32C2F20002116808
:10311000122933DC4B1C136040F2B432C2F20002BD
:1031200050542BE040F2B430C2F20000FDF7CBF96E
:1031300000EE100AB8EEC00A10EE100A02F0B2FE5D
:1031400041EC180B40F2E800B0EE480AC2F2000071
:10315000F0EE680A00F028FB40F2A810B0EE480A32
:10316000C2F20000F0EE680A00F01EFB002038609A
:1031700006F5E2304FF40051FEF7AEFC40F26C3041
:1031800040F2C831C2F20000C2F200010122FFF792
:1031900059FFBDEC028B01B0F0BD00002DE9F041FC
:1031A000044690F8410020281CBF0220BDE8F081B1
:1031B0000E4600294FF0010042D01746002A08BFF2
:1031C000BDE8F0814FF0000821201D46C4F844807E
:1031D00084F84100FEF78EFCA784E784A1680746C7
:1031E000B1F5805F0DD12069002814BF3046B0468C
:1031F000064606E016F8010B21684860E08C0138AD
:10320000E084E08C80B1204680213A462B4601F0D4
:10321000FDF8B8B9002EEDD138F8020B21686FF334
:103220005F2048600026E9E7204640213A462B46C9
:1032300001F0ECF8202184F84110002818BF032089
:10324000BDE8F081202084F841000320BDE8F08132
:1032500070470000FEE7000070B586B0002543F619
:1032600030000595CDE90355CDE901550095C4F22F
:103270000200016840F2004441F0800101600168F1
:10328000C4F2020401F080010091009900950168E8
:10329000002241F00101016001684FF4704601F025
:1032A0000101009100990095016841F0020101605F
:1032B00000684FF4704100F0020000900098204632
:1032C000FEF712FC01200196CDE9020501A9204676
:1032D0000495FEF733FB06B070BD000080B540F2E8
:1032E000F81045F20041C2F20000C4F2000148F2B9
:1032F000A06200234FF4804CC0F2010280E80E006F
:10330000C0E9033CC0E90533C0E90733FEF7F8FB29
:10331000002808BF80BDFEF7A7FA000080B586B080
:1033200040F24C2000220021C2F20000C4F201024F
:10333000632342F20F7CCDE90411CDE90211CDE9FE
:103340000011C0E90023C0E9021CC0E90411816139
:10335000FFF760F8C0B94FF48050029040F24C2063
:10336000C2F2000002A9FFF7FDF868B90020CDE91C
:10337000000040F24C20C2F200006946FFF700F85E
:10338000002804BF06B080BDFEF76EFAB0B58CB061
:1033900003AC20462421FDF7ADF840F2942000252F
:1033A000C2F200004FF08041C0E900150321CDE9D1
:1033B000031501214FF0FF32CDE90515CDE9075581
:1033C000CDE909152146CDE90055C0E90252056154
:1033D00085610B95FFF736F960B940F29420C2F28F
:1033E00000006946CDE90055FEF7CAFF002804BF7A
:1033F0000CB0B0BDFEF738FA10B58EB040F2DC204C
:1034000040F200420021C2F20000C4F2000209238F
:1034100040F2F3140D91CDE90B11CDE90911CDE97D
:103420000711CDE90511CDE90311CDE90111C0E97D
:103430000023C0E9021401618161FEF7EBFFD8BBF4
:103440004FF480500A9040F2DC20C2F200000AA93A
:10345000FFF788F880BB40F2DC20C2F20000FFF7E3
:103460007DFB48BB40F2DC200024C2F2000008A92A
:10347000CDE90844FEF784FFF0B96020CDE90104EE
:1034800040F2DC20C2F2000001A90022039405945E
:10349000FFF718FB80B940F2DC20C2F2000001A95E
:1034A0000422FFF70FFB38B940F2DC20C2F2000023
:1034B000FFF7D8FA0EB010BDFEF7D6F9B0B58CB054
:1034C00003AC20462421FDF715F840F2243040F6E5
:1034D00000010025C2F20000C4F20001C0E900159D
:1034E0000321CDE9031501214FF6FF72CDE9051542
:1034F000CDE90755CDE909152146CDE90055C0E9CB
:103500000252056185610B95FFF79CF860B940F2A6
:103510002430C2F200006946CDE90055FEF730FFC5
:10352000002804BF0CB0B0BDFEF79EF980B540F294
:103530006C3044F20041C2F20000C4F200010023EA
:103540004FF00C0C4FF4E13280E80E00C0E9033379
:10355000C0E905C3C361FFF703FD002808BF80BDB4
:10356000FEF782F9FEE700002DE9F04104464069CC
:103570000068476A608B94F80080381AA08300B214
:10358000278302F0CEF99FED120B53EC102B02F0C3
:1035900007F89FED110B05460E4651EC100B2A461D
:1035A000334602F095FB9FED0E0BB8F1000F53EC84
:1035B000102B04BF3146284602F056FA41EC100B9E
:1035C000678384ED0E0BBDE8F08100BF00BF00BF34
:1035D0000000000000E095400000000000000080B6
:1035E000000000000070B74070B50DF1180E0446E1
:1035F0009EE80150DDE9046521706260002104F15C
:1036000020022381E6602582C4E90B0CC4E905E1B0
:10361000E16182EC030AC4E90E11C4E91011C4E9A6
:1036200012116146FFF7CCFA60693C21FFF7C2F83E
:1036300070BD0000000000002DE9F0472DED028B69
:1036400090ED120B9FED528B55EC106B044653EC32
:10365000182B3046294602F05EFC10B184ED128B27
:103660000BE09FED4D8B304653EC182B294602F0B2
:1036700059FC002808BF84ED128B2078C8B10128BE
:1036800040F0818094ED120B9FED451B57EC105BD1
:1036900058EC116B284639463246434602F049FC45
:1036A000E8B9606821890122FEF71EFAE068218AE4
:1036B0003DE094ED120B9FED3A1B57EC105B5AEC7A
:1036C000116B284639463246534602F032FCD0B9D7
:1036D000606821890022FEF707FA012641E0606850
:1036E00021890022FEF700FAD4F80CA0B4F810905B
:1036F000284639463246434602F014FCA8B95046E3
:103700004946012214E0D4F80490B4F80880284611
:1037100039463246534602F005FCE0B94846414678
:103720000122FEF7E1F900261BE05046494600223F
:10373000FEF7DAF994ED120B4FEAD87251EC100B48
:1037400062F3DF7102F0C0F8E16A09688863BDECDA
:10375000028BBDE8F0874846414600220026FEF76E
:10376000C3F9E068218A3246FEF7BEF994ED120BE8
:103770004FEADA7251EC100B62F3DF7102F0A4F839
:10378000E16A09684863BDEC028BBDE8F08700BFC1
:103790000000000000307F400000000000307FC0CB
:1037A000000000000000000080ED100B70470000DA
:1037B000FEE7000000F0070080F00703042B28BF9D
:1037C00004234FF0FF3C03380CFA03F338BF00200A
:1037D000994381400CFA00F022EA00000843704748
:1037E00070B52DED068BB0EE419AB0EE40AA0446BE
:1037F0004030F0EE619AF0EE60AA0EC000209FED1E
:10380000160B9FED171BB0EE428ADDE90A56607079
:103810002046F0EE628A00F07DF96420A060204628
:10382000314600F029F9B0EE4A0AB0EE491AB0EE7E
:10383000482A2046F0EE6A0AF0EE691AF0EE682A8D
:10384000294600F0FDF9FEF755F9A168401A6060BD
:10385000BDEC068B70BD00BF000000000000000042
:103860000000000000E06F402DE9F04F81B02DED29
:10387000088B84B00446407840B1FEF73BF9D4E9A8
:103880000121821A8A4203D20020B9E00020B7E069
:103890000390206CA16C90ED008B91ED000B56EC29
:1038A000185B51EC100B2A46334602F011FA94EDE6
:1038B000160B81460F4653EC102B2846314602F07A
:1038C00007FA94ED0C0B8346884653EC102B4846C0
:1038D0003946CDF80890019702F0C6F894ED140B24
:1038E00002460B4651EC100B01F09EFD94F800A02F
:1038F00041EC100BBAF1000F84ED140B13D194EDD1
:103900000A0B06460F4653EC102B5846414602F070
:10391000ABF802460B463046394602F0D9F941EC85
:10392000100B84ED140B94ED140B94ED1A9B56ECD4
:10393000105B59EC197B284631463A464B4602F05B
:10394000EAFAB0EE49AAF0EE69AA78B184ED14ABB8
:10395000BAF1000F19D094ED0A0BDDE9011053EC18
:10396000102B02F081F841EC1A0B10E094ED18AB2B
:10397000284653EC1A2B314602F0D4FA002808BF2F
:1039800084ED14ABBAF1000FE5D19FED21AB94EDBE
:103990000E0B94ED14BB53EC102B5846414602F02D
:1039A00063F802460B4651EC1B0B02F091F90246FC
:1039B0000B4651EC1A0B01F037FD3A464B460546D3
:1039C0000E4641EC1A0B02F0A6FA88B994ED18BB2A
:1039D000284653EC1B2B314602F0A4FAB0EE4A9A6B
:1039E000F0EE6A9A002804BFB0EE4B9AF0EE6B9AA4
:1039F000606C80ED009B039884ED168B6060012065
:103A000004B0BDEC088B01B0BDE8F08F00BF00BF73
:103A1000000000000000000070B52DED028B044690
:103A2000D0E9101094ED1A8B90ED000B53EC182B8D
:103A300084ED140B91ED001B55EC106B30462946BC
:103A400084ED161B02F067FA20B184ED148BBDECF7
:103A5000028B70BD94ED188B304653EC182B294621
:103A600002F060FA002808BF84ED148BBDEC028BD5
:103A700070BD000000000000F0B581B02DED048B9A
:103A8000044640780D4650B3E078A84227D094ED24
:103A90000A0B94ED0C8B53EC102B9FED130B94ED54
:103AA0000E9B57EC106B3046394602F011F941EC91
:103AB000100B53EC182B3046394684ED0A0B02F0FC
:103AC00007F941EC100B53EC192B3046394684EDC5
:103AD0000C0B02F0FDF841EC100B84ED0E0BE570C1
:103AE000BDEC048B01B0F0BD0000000000000080C0
:103AF000B0B50446481EB0FA80F04FEA501501D127
:103B0000607808B16570B0BD2046FFF785FF65702D
:103B1000B0BD00002DE9F04F81B02DED048B58ECC5
:103B2000106B57EC115BB0EE419AB0EE408A044640
:103B3000304641462A463B46F0EE619AF0EE608AF6
:103B400002F0F0F900283FD1607884ED188B84ED05
:103B50001A9BC8B3D4F844B02A469BED000B3B46F1
:103B600059EC10AB5046494602F0D5F910B18BED37
:103B7000009B0DE0504649463246434602F0D2F9DA
:103B8000B0EE489A0028F0EE689A08BF8BED009BD3
:103B900094ED140B94ED1A8B55EC106B53EC182B21
:103BA0003046294602F0C5F910B984ED148B0BE0BC
:103BB00094ED188B304653EC182B294602F0B2F9DD
:103BC000002808BF84ED148BBDEC048B01B0BDE868
:103BD000F08F00000129B8BF7047F0B581B00546ED
:103BE00008460C4601F09DFE0646A8680F4601F007
:103BF000AFFE02460B463046394601F0D1FC95ED4A
:103C00000C0B06460F4651EC100B32463B4601F0BA
:103C10002BFF95ED0E1B41EC100B51EC110B3246B6
:103C20003B4685ED0C0B01F0BBFC41EC100BAC608E
:103C300085ED0E0B01B0BDE8F040704700000000BC
:103C40002DE9F04F81B02DED068B82B0B0EE408AA9
:103C5000F0EE608A9FED420B0E4657EC109BB0EEE3
:103C6000429AB0EE41AA044651EC180B4A463B4634
:103C7000F0EE629AF0EE61AACDE9000102F060F97F
:103C8000002867D158EC1A5B284641464A463B4615
:103C900002F056F900285DD15AEC19BB584651463E
:103CA0004A463B4602F04CF9002853D1701EB0FA48
:103CB00080F040092070A068A67084ED048B84ED2C
:103CC00006AB84ED089B01F043FE9FED270B53EC00
:103CD000102B01F065FC2A46434606460F4684ED4C
:103CE0000A8B01F0C1FE41EC100B05468846584690
:103CF000514632463B4684ED0C0B01F051FC8246A6
:103D0000E07841EC10AB012884ED0E0B22D19FED41
:103D1000180BDDE9002357EC106B89463046394615
:103D200001F0D6FF41EC100B304639462A46434697
:103D300084ED0A0B01F0CCFF41EC100B3046394604
:103D400052464B4684ED0C0B01F0C2FF41EC100BC8
:103D500084ED0E0B02B0BDEC068B01B0BDE8F08F18
:103D600000000000000000000000000000408F4044
:103D70000000000000000080704700007047000055
:103D8000B0B501380024B4EB106F1CBF0120B0BDEA
:103D90004EF21005CEF2000568604FF0FF300F21A3
:103DA00000F09AFB0720AC6028602046B0BD000000
:103DB00080B5FDF7A7FF80BD70B592B006AC204678
:103DC0003021FCF797FB002543F640000595CDE92F
:103DD0000355CDE901550095C4F2020001680226A1
:103DE00041F080510160006800F080500090009820
:103DF00047F200000095C4F20000016841F4404120
:103E00000160006800F44040009000980120099093
:103E100010200A9008200696CDE90C650E906420CB
:103E2000CDE90F06042011902046FEF7FFF878B97F
:103E30000F20CDE901064FF480500395CDE904052C
:103E400001A80321FDF7E4FF002804BF12B070BDF4
:103E5000FDF70AFD4EF68850CEF20000016841F4ED
:103E6000700101607047000080B540F24C20C2F242
:103E70000000FEF75DFD80BD10B540F2FF7E0368D7
:103E8000C4F2000E40F2000C7045C4F2010C0ADDD1
:103E900040F60002C4F2000290420DD060450BD003
:103EA00040F6004204E0B0F1804F05D040F20042FD
:103EB000C4F20002904203D14A6823F07003134316
:103EC0004FF6FF72C4F20002904209DC704512DC2A
:103ED000B0F1804F26D040F20042C4F200021FE051
:103EE00044F2FF32C4F2010290420FDC604519D067
:103EF00044F2000212E040F60002C4F200029042D6
:103F000010D040F60042C4F2000209E044F600027C
:103F1000C4F20102904205D044F20042C4F2010210
:103F2000904203D1CA6823F44073134323F0800204
:103F30004B69D1F800E08C681A436045C462C0F850
:103F400028E002D10969CCF83010016841F0040181
:103F5000016001214161026010BD000080B501F0E7
:103F60001F014FF0010CD0F820E00CFA01F32EEA0B
:103F700003030362036A02FA01F11943016280BD7F
:103F8000D0F808C011432CF47F4C41EA032141EAE8
:103F90000C01816070470000826822F070021143BA
:103FA00041F007018160704770B5026A036A40F210
:103FB000000E23F001030362456883690C688E6874
:103FC00023F0730322F00202C4F2010E43EA040C50
:103FD000704542EA060208D070450ED04560C0F830
:103FE00018C049684163026270BDCB6822F00C02C0
:103FF00023F004031A437045F0D125F44073D1E94E
:10400000056533431D43E9E770B5026A036A40F270
:10401000000E23F010030362456883690C688E6804
:1040200023F4E64322F02002C4F2010E43EA042CFA
:10403000704542EA061208D0704510D04560C0F8BD
:1040400018C049688163026270BDCB686FF040049C
:1040500022F0C00204EA03131A437045EED125F49E
:104060004063D1E9056543EA860343EA8505E5E750
:1040700070B5026A036A40F2000E23F48073036293
:104080004568C3690C688E6823F0730322F40072DC
:10409000C4F2010E43EA040C704542EA062208D03D
:1040A000704510D04560C0F81CC04968C163026209
:1040B00070BDCB6840F2FF441B0222F44062A34370
:1040C0001A437045EED125F44053D1E9056543EA22
:1040D000061343EA0515E5E7B0B5D0F820E0026A1B
:1040E00022F4805202624468C3690A6823F4E643FA
:1040F0008D6843EA022C00232EF40052C4F201031F
:10410000984242EA053304D14A6924F4804545EADD
:1041100082144460C0F81CC0496801640362B0BDE9
:10412000D0F820C0036A23F001030362836923F0FF
:10413000F00343EA02122CF00A0319438261016280
:1041400070470000D0F820C0036A23F01003036218
:10415000836923F4704343EA02322CF0A00343EA5C
:10416000011182610162704780B5806B0021C185B9
:10417000FEF7BEFD80BD0000016851E8031F026824
:1041800021F4907142E80313002BF5D1016851E846
:10419000051F026821F0010142E80513002BF5D14B
:1041A000016B01290AD100BF016851E8031F0268B1
:1041B00021F0100142E80313002BF5D1202180F8F3
:1041C000421000210163704780B50168CA6822F07F
:1041D0004002CA60202180F84110FFF739F880BD05
:1041E00080B582B090F8421022291ED18268B2F5C3
:1041F000805F02D1016900294AD0816AB2F5805FEF
:1042000007D00AB9026922B10268526802F07F023F
:1042100001E0026852680A700121826A11448162D9
:10422000C18D01390A04C18501D002B080BD016889
:10423000CA6822F02002CA60CA6822F48072CA608A
:104240004A6922F001024A61202180F842100021CF
:104250004163026B012A23D1016300BF016851E869
:10426000031F026821F0100142E80313002BF5D16F
:1042700001680A68D20606D5002201920A680192F6
:10428000496801910199818DFEF730FD02B080BD32
:104290000168826A49686FF35F2111800221BCE7DF
:1042A000FEF7E6FE02B080BD10B504460068D4E912
:1042B00002C22369016921F440511143016162691D
:1042C00043EA0C01E3691143C268194349F20C63E4
:1042D0009A431143C1604169A26921F4407141F2DE
:1042E0000043114340F48062C4F201039A424161E9
:1042F00002D1FDF755FE01E0FDF740FEE16963687C
:104300001922B1F5004FA0FB02011CD15A00DB0FAE
:10431000FBF7C4FF48F21F51C5F2EB11A0FB0123CC
:104320005A096FF0630302FB0300322303EBC00062
:10433000A0FB01014FF4F87000EA111000EB02102D
:10434000C1F342111AE09A009B0FFBF7A7FF48F256
:104350001F51C5F2EB11A0FB01235A096FF0630353
:1043600002FB0300322303EB0010A0FB0101F0204D
:1043700000EA511000EB0210C1F343112268084318
:10438000906010BD816200218285C2854164222136
:1043900080F84210016921B10168CA6842F4807254
:1043A000CA600168486940F001004861C86840F08F
:1043B00020020020CA60704790F84110212923D1C3
:1043C0008168B1F5805F01D1016931B1016A02688C
:1043D0004B1C03620978516007E0016A036831F8F9
:1043E000022B6FF35F225A600162C18C01390A040B
:1043F000C18418BF70470068C16821F08001C160A6
:10440000C16841F04001C160704700002DE9F041F2
:1044100082B00446006800680840884203D100204A
:1044200002B0BDE8F0811D460E4690465F1C04E0D8
:10443000206800683040B04228D0002FF8D0FDF747
:1044400059FB01464FF003000DB3A1EB0801A9424F
:104450001DD82068C1684907EAD5402EE8D0802ED3
:10446000E6D001680907E3D50025019501680191AF
:104470004068019001982046FFF77EFE08206064A6
:1044800084F84050012002B0BDE8F081002002B065
:10449000BDE8F08180B540F26C30C2F20000FEF75A
:1044A00029FC80BDFEE70000002848BF704700F0EF
:1044B0001F01012202FA01F14EF200124009CEF270
:1044C000000242F8201070474EF60C50CEF2000069
:1044D0000068C0F3022070474EF6145300F00F023C
:1044E000CEF2000309011A4400F16043B0F1FF3F2E
:1044F000C8BF03F564421170704700004EF60C51BE
:10450000CEF200010A684FF6FF031A4060F30A2258
:1045100042F0806040F0FD700860704700000000CD
:1045200096B0FDF7FDFBFFF747FCFEF795FEFEF7A3
:104530002DFFFEF761FFFEF7C1FFFEF7F7FFFEF765
:10454000EDFEFEF7CBFE40F26C3AC2F2000A40F2FA
:10455000C831C2F2000150460122FEF773FD40F25D
:104560004C20C2F20000FDF7BBFF40F29425C2F2DE
:10457000000528463C21FEF76FF940F22438C2F2CC
:10458000000840463C21FEF767F940F2DC26C2F203
:104590000006304600210024FEF712FB30460421BD
:1045A0004FF00409FEF70CFB192000210022FDF753
:1045B0001BFC1920FDF714FC40F200474FF400509B
:1045C000C4F20207CDE90070049540F2E805C2F29A
:1045D00000059FED750ADFED750A9FED751A2846F7
:1045E00000213A464FF4805302960394FEF7FCFFF5
:1045F0004FF40040CDE90070CDE9026940F2A81601
:10460000C2F200069FED6B0ADFED6B0A9FED6B1A9D
:10461000304601213A464FF48043CDF81080FEF732
:10462000E3FF40F20400C2F20000016801F120073C
:1046300091CF01F1380B01F1480801F1400901F077
:1046400031FC41EC180B204601F02CFC41EC190B1D
:10465000384601F027FC40F2780441EC120B0120AF
:10466000C2F20004B0EE480AB0EE491A00902046AB
:10467000594642464B46F0EE680AF0EE691A0027AA
:104680000197FFF7ADF820460121FFF731FA2046E8
:104690000A21FFF79FFA9FED3E8B9FED3F9BB0EE07
:1046A000480AB0EE491A2046F0EE680AF0EE691AA0
:1046B000FFF730FA40F20800C2F20000016801F191
:1046C000200791CF01F1380B01F1480801F14009B1
:1046D00001F0E8FB41EC1A0B204601F0E3FB41EC52
:1046E0001B0B384601F0DEFB40F2381441EC120B94
:1046F0000120C2F20004B0EE4A0AB0EE4B1A00905C
:104700002046594642464B46F0EE6A0AF0EE6B1AD6
:1047100000270197FFF764F820460121FFF7E8F929
:1047200020460A21FFF756FAB0EE480AB0EE491AC1
:104730002046F0EE680AF0EE691AFFF7EBF99FEDFC
:10474000188B2846B0EE480AF0EE680AFFF72CF8FE
:10475000B0EE480A3046F0EE680AFFF725F818A7D1
:1047600006AC00BF95ED0E0B96ED0E1B53EC102B17
:10477000204639468DED001BFBF708FE82B25046FD
:1047800021466423FEF70AFD0A20FDF7C3F8E9E796
:104790000000000000307FC00000000000307F40BB
:1047A00000000000000059409A991941000070442F
:1047B000A69BC43C9A998D410040DD447D3F353D28
:1047C0005350443A252E32662C252E32660A0000BC
:1047D0005FEA400C08BF91F0000F4FEA8C234FEACC
:1047E000C12243EA51514FEA1C5018BF00F5F04076
:1047F0004FEA300018BF41F000415FEA6C5C00F006
:104800002980BCF1FF3F08BF40F080407047130C87
:1048100006BF12044FF0100C4FF0000C130E04BF33
:1048200012020CF1080C130F04BF12010CF1040C5E
:10483000930F04BF92000CF1020CD30F04BF52007F
:104840000CF1010C11464FF00002A0F11F00A0EB8B
:104850000C00704711F0004F08BF704731F0004165
:104860003FF4D5AF0B0C06BF09044FF0100C4FF00E
:10487000000C0B0E04BF09020CF1080C0B0F04BF57
:1048800009010CF1040C8B0F04BF89000CF1020C20
:10489000CB0F04BF49000CF1010CCCF1200322FA2C
:1048A00003F341EA030102FA0CF2A0EB0C0000F161
:1048B0000100704723F07F4720F07F4C80EA03001F
:1048C00000F00040ACEB070303F57C5303F1FF035A
:1048D0002DE9804909B44FEA144324EA03484FEA1A
:1048E000154B25EA0B4E0FF2042606EB13273E78F4
:1048F00003FB0667C7F5000707FB06F64FEAD64637
:1049000006F102064FEA543707FB066CCCF1005C57
:104910004FEA1C472CEA074C0CFB06F507FB06F494
:1049200004EB15464FEA961649085FEA320234BF97
:1049300000204FF000404FEAD13706FB07FC4FEA5A
:104940001C4C0CFB0BF7D21B03FB0CF761EB0701B4
:104950000CFB0EF7B0EB074072EB17420CFB08F7AD
:1049600034BFA2EB0742B2EB074261EB17414FEABB
:104970000C444FEA910706FB07FC4FEA1C4C0CFB6A
:104980000BF7B0EBC74072EB573203FB0CF734BFA9
:10499000A2EBC742B2EBC74261EB57310CFB0EF7FB
:1049A000B0EBC70072EB57720CFB08F734BFA2EBF9
:1049B000C702B2EBC70261EB57714FEA816141EA6E
:1049C00092114FEA826242EA90124FEA806004EB51
:1049D000CC04039F4FEAD13706FB07FC4FEA1C4C7F
:1049E0000CFB0BF7D21B03FB0CF761EB07010CFB75
:1049F0000EF7B0EB074072EB17420CFB08F734BF21
:104A0000A2EB0742B2EB074261EB17414FEA8C552C
:104A100004EB9C244FEA910706FB07FC4FEA1C4C71
:104A20000CFB0BF7B0EBC74072EB573203FB0CF7F4
:104A300034BFA2EBC742B2EBC74261EB57310CFB6C
:104A40000EF7B0EBC70072EB57720CFB08F734BFE0
:104A5000A2EBC702B2EBC70261EB57714FEA81616B
:104A600041EA92114FEA826242EA90124FEA806074
:104A700015EB4C2544F100044FEAD13706FB07FC47
:104A80004FEA1C4C0CFB0BF7D21B03FB0CF761EB42
:104A900007010CFB0EF7B0EB074072EB17420CFB63
:104AA00008F734BFA2EB0742B2EB074261EB1741B4
:104AB0004FEA813141EA92414FEA823242EA904222
:104AC0004FEA80304FEA0C7615EB1C1544F10004D8
:104AD00048EA03434EEA0B484FF0000EB2EB080CD5
:104AE00071EB030724BF624639464EEB0E0E4FF0C2
:104AF000000B0018524149414BEB0B0BB2EB080C79
:104B000071EB03077BF1000B24BF624639464EEB85
:104B10000E0E4FF0000B0018524149414BEB0B0BAE
:104B2000B2EB080C71EB03077BF1000B24BF62466C
:104B300039464EEB0E0E51EA020718BF46F0010649
:104B400016EB0E7655F1000254F1000103D5BDE8D5
:104B50008901BDE80088BDE88901BDE80048B619B3
:104B6000524141EB0101A3F10103704780807F7E38
:104B70007D7C7B7A797877767675747372717170D3
:104B80006F6E6E6D6C6C6B6A6A6968686766666585
:104B90006464636362616160605F5F5E5E5D5D5C13
:104BA0005C5B5B5A5A595958585757565655555584
:104BB0005454535352525251515050504F4F4F4EE4
:104BC0004E4D4D4D4C4C4C4B4B4B4A4A4A49494932
:104BD0004848484747474746464645454544444474
:104BE00044434343434242424241414110B546EAB5
:104BF00006464FEA164646EA42564FEAD22242EAB3
:104C000041524FEAD121A3F57053A3F1010300F003
:104C10002FF820F0004000F0004700F1020CBCF536
:104C2000006F01EB0050114640EA070000D210BDB2
:104C3000BAF1000F0AD01CB503B44FF004004FF0D6
:104C400004014FF000000FBCBDE810404FF0000120
:104C5000BBF1010FB9BF04484FF0FF3103480021F9
:104C600040EA070010BD00BFFFFFEF7F0000F07FAC
:104C70009C46002B30D477002BD04FEA37071CB569
:104C800003B44FF010004FF01001BAF1000F06D03E
:104C9000BCF1000FDCBF40F0080040F008014FF00D
:104CA00000000FBCBDE810400BF1010BBBF1010F80
:104CB00008BF5FEA170722BF12F1010211F10101DB
:104CC0004FF0004143F1000300F0004043EA0000D0
:104CD0007047F9D35708D0E746EA06464FEA16462A
:104CE00013F1400F1FDD13F1200FDFBF16430A46FB
:104CF000002120335B42BED0C3F1200746EA0646BE
:104D00004FEA164602FA07F746EA070622FA03F2C6
:104D1000C3F1200701FA07F742EA070221FA03F17B
:104D20004FF00003A7E746EA020646EA06464FEAC6
:104D3000164646EA0106BCBF46EA0646360C4FF068
:104D400000034FF000024FF0000194E72DE9804C82
:104D500070B49A46934691E8380007C831EA400C8F
:104D600048BF34EA430C03D5FFF7A4FDFFF780FFEB
:104D7000F0BCBDE8008C2DE9804C70B49A46934697
:104D800091E8380007C831EA400C48BF34EA430CC8
:104D900003D5FFF78FFDFFF729FFF0BCBDE8008CBE
:104DA0002DE9804C70B49A46934691E8380007C8C4
:104DB00010F0804F08BF13F0804F03D100F01AF8B5
:104DC000FFF756FFF0BCBDE8008C2DE9804C70B4B5
:104DD0009A46934691E8380007C810F0804F08BF04
:104DE00013F0804F03D100F005F8FFF7FFFEF0BC91
:104DF000BDE8008C20F07F4723F07F4C80EA030061
:104E000000F0004007EB0C03A3F57C53A3F1FE0375
:104E100092F0000F00F0B38095F0000F00F0778063
:104E20002DE901494FEA114021EA00484FEA1446B2
:104E300024EA064700FB06FC08FB06F607FB08F819
:104E400018EB06484CEB164C00FB07F718EB07482D
:104E50004CEB17404FEA124B22EA0B4E4FEA154635
:104E600025EA06470BFB06FC0EFB06F607FB0EFECB
:104E70001EEB064E4CEB164C0BFB07F71EEB074EDA
:104E80004CEB174B18EB0B0840F1000018EB0E0B26
:104E900058EB000840F100008F1A4FF000014FF06E
:104EA00000063CBFC943661B14BFB5EB040C0021D0
:104EB0003CBFC943F61B4FEA174427EA04454FEAB3
:104EC0001C472CEA074C04FB076205FB07F70CFBA9
:104ED00005F616EB074642EB174204FB0CFC16EBFB
:104EE0000C4642EB1C421BEB060658EB020241410A
:104EF0004EEA8E0E46EA9E0601D5BDE80189B61936
:104F0000524141EB0101A3F10103BDE801894FEAE0
:104F1000144524EA05464FEA114721EA074C05FBF0
:104F200007F406FB07F70CFB06F111EB074144EB16
:104F3000174405FB0CFC11EB0C4144EB1C444FEAFD
:104F4000124722EA074C05FB07F206FB07F70CFBAA
:104F500006F616EB074642EB174205FB0CFC16EB78
:104F60000C4642EB1C456A1854F1000148BF7047DB
:104F7000B619524141EB0101A3F10103704795F0CD
:104F8000000F37D04FEA114221EA02464FEA144798
:104F900024EA074C02FB07F106FB07F70CFB06F4BB
:104FA00014EB074441EB174102FB0CFC14EB0C44DF
:104FB00041EB1C414FEA154725EA074C02FB07F578
:104FC00006FB07F70CFB06F616EB074645EB174505
:104FD00002FB0CFC16EB0C4645EB1C42121951F17E
:104FE000000148BF7047B619524141EB0101A3F1DE
:104FF000010370474FEA144524EA05464FEA11477A
:1050000021EA074C05FB07F106FB07F70CFB06F24C
:1050100012EB074241EB174105FB0CFC12EB0C4273
:1050200051EB1C414FF0000648BF7047921841EB0E
:105030000101A3F10103704703B4019841000098F6
:1050400050EAC12018BF04204A0D18BF40F00100EB
:1050500040F2FF72B2EB515F08BF40F0020001283E
:1050600008BF052002B0704730B52DED048B81B02C
:10507000B0EE408AF0EE608A6A4651EC180B00F000
:105080002FF900989FED329B7E300090002821DCA4
:1050900053EC192B51EC180B00F0DAFB1AD000215D
:1050A00040F608004FF00000044651EC180B00F0E9
:1050B00089F908EE100A40F6080004EA00014FF0F2
:1050C0000000B5EEC08AF1EE10FA04BF0220FBF733
:1050D00044FA2DE00098FF2830DB002108464FF00D
:1050E000000000F4400553EC192B51EC180B00F0B4
:1050F000B9FD8CBF002401240220FBF72EFA9FED9E
:10510000168A4DB1002C0CBF4FF400004FF4800004
:10511000A84218BF9FED118A042108464FF00000F5
:10512000002C01BFB1EE480A01B0BDEC048B30BDCC
:10513000B0EE480A01B0BDEC048B30BD51EC180B49
:1051400000F040F901B000EE100ABDEC048B30BD58
:1051500000000000000000000000807FFFFF7F7F54
:1051600030B583B00446FBF7F3F99FED090B054614
:105170008DED000B0123002221466846FBF742FC1F
:105180002846FBF7EAF99DED000B03B030BD0000A7
:10519000000000000000000030B540F2FF742DED6B
:1051A000048BF0EE608A18EE901A85B0B0EE408A5B
:1051B0009FED2B9B05468DED008B34EA115147D0B6
:1051C00053EC192B51EC180B00F042FB40D02A464F
:1051D00051EC180B00F04AFF41EC180B18EE900A46
:1051E0008DED008B34EA10501CD053EC192B51EC90
:1051F000180B00F02DFB2BD10220FBF7AEF900F0CD
:1052000043F810EE901A18EE900A8DED020B8DED1A
:10521000008B61F31E0003909DED020B05B0BDEC09
:10522000048B30BD0220FBF798F900F01DF810EE5A
:10523000901A18EE900A8DED020B8DED008B61F344
:105240001E0003909DED020B05B0BDEC048B30BD3C
:1052500005B0B0EE480AF0EE680ABDEC048B30BD34
:1052600000000000000000009FED050B10B553EC9E
:10527000102B51EC100B00F0F7FB41EC100B10BDA4
:1052800000000000000000709FED050B10B553EC0E
:10529000102B51EC100B00F0E7FB41EC100B10BD94
:1052A000000000000000001010B5044691ED000B56
:1052B000FFF7DAFE84ED000A10BD10B5044690ED4C
:1052C000000B0846FFF768FF84ED000B10BD303877
:1052D0000A2801D20120704700207047000000001A
:1052E00010B582B01446CDE900010023009A236076
:1052F000194B21F0004098422ADA024328D0B0F539
:10530000801FA8BF226810DA9FED150B53EC102BFD
:105310009DED000B51EC100B00F0A6FBCDE9000158
:105320006FF0350221F0004022600F4B6FF31E51E9
:1053300003EB20501044206041F0FF5040F000503B
:1053400001909DED000B00BF02B051EC100B10BDA1
:105350009DED000BF8E700000000F07F000000006A
:10536000000000000000504302FCFFFF10B50029C0
:105370000AD00878002807D005487844FBF7ECFFEE
:10538000002801D0002010BD0248784410BD000064
:10539000660E00005E0E000010B500290AD00878E5
:1053A000002807D005487844FBF7D6FF002801D035
:1053B000002010BD0248784410BD0000560E0000C9
:1053C0004E0E000021F0004201F00043A2F16052B5
:1053D000B2F5801F28BFD2F17F6C0BD95FEA001CA9
:1053E00043EAC20242EB507018BF704728BF20F05A
:1053F00001007047B2F5801FBCBF184670474FEAE6
:10540000410C1CF5001F02D2084600F0F3BD70B538
:1054100000F0D4FB00000089FFF7F6BF4FF000401A
:10542000A0F580007047000010B591EA030F48BF57
:1054300083F0004300F15484841A71EB030C05D20D
:10544000121943EB0C03001B61EB0C014FEA1154E2
:10545000A4EB135CDFF81CE11EEA430F18BF9EEAC1
:10546000445F73D021EA045123EA0E0343F480130E
:10547000DCF1200E32D322FA0CFE10EB0E0023FAE0
:105480000CFE41EB0E01CCF1200E03FA0EFE10EBE8
:105490000E00CCF1200E51F10001B1F5801F32D287
:1054A00001EB045112FA0EF2BDE8104058BF7047EC
:1054B000401C38BF5FEA420218BF7047002814BF83
:1054C00020F0010041F100014FEA410313F5001FF4
:1054D00038BF7047A1F1C04100F0BEBB012A43EBC9
:1054E0000302ACF1200CDCF11F0E32BF4FF0000EB6
:1054F00023FA0CF310EB030041EB0451B4EB115F02
:10550000D0D0A1EB045101F58011490801EB045101
:105510005FEA30000ED350F1000038BF12FA0EFEE1
:1055200008D1BDE81040C9E7401C38BF5FEA42021D
:10553000CAD1C3E7BDE810404FEA410313F5001F8D
:1055400038BF7047A1F1C04100F086BB9EEA445FBE
:1055500008D011EA5E0FBDE8104004BF01F0004121
:1055600000207047BDE8104070B500F027FB00BF79
:1055700064FBBE3E0000E0FF02494FF0000000F077
:1055800043BD00BF0000F87F491058BFC1F1404142
:105590005B1058BFC3F140438B42EFF3008070476C
:1055A0002DE9C04130B4DFF8A0C23CEA111418BFA5
:1055B0003CEA131400F0EC801CEA111481EA0305A4
:1055C00044EAD57418BF1CEA131500F0C780A4EB99
:1055D000050404F17F7404F500344FF0004545EAFA
:1055E000C12145EAC32341EA505143EA52534FEAED
:1055F000C0204FEAC222994208BF904200F09C802E
:105600004FEA13650FF24016765D4FEA134506FB2D
:1056100005F7C7F1807706FB07F74FEAD737A7FBF7
:1056200003687642A7FB06CEC8F5803838BFA8F1DC
:10563000010807FB08E6A6FB028C4FF0000EE6FB14
:1056400003CEDCF1000CCEF1004E38BFAEF1010EFE
:10565000A6FB0C584FF00007E6FB0E87A1FB08C61F
:10566000A0FB07CE16EB0E064FF0000545F1000536
:10567000E1FB076515F1E04E7EBFA4F580345FEADB
:1056800046066D4116F1800745F100054FEA1727E0
:1056900047EA05674FEA15254FEA0666A6F1DE469A
:1056A000B6F1805F1FD9384605EBC47124F0010CB8
:1056B00001EB0C11BCF1FE6F02D8F0BCBDE800811B
:1056C00024425CBF01F5801E9EEAC47F02D4F0BC78
:1056D000BDE80081244238D4A1F1C041F0BCBDE84E
:1056E000004100F0B9BA4FEAD02040EA41504FEAF9
:1056F000D1214FEAD22242EA43524FEAD323A7FBF9
:10570000028607FB036605FB02661EEA0E0F58BF02
:10571000A6EB0056B6EB00564FEA520E4EEAC37E99
:1057200018EB0E0E56EB530EBDD518EB02085E417A
:105730007F1C55F10005B6E74FF480154FF00007C8
:105740004FF000064FF00008ADE701F1C04101F055
:1057500000414FF00000F0BCBDE800810CEA1315D9
:1057600011EA0C1F00D00CE013EA0C1F00F025809A
:105770004FF0000081EA030101F00041F0BCBDE8F8
:105780000081F0BCBDE8004181EA030100F064BA89
:10579000F0BCBDE8004170B500F010FA097EFC3E97
:1057A00000F007B84FF0000081EA030101F000416A
:1057B000704781EA030100F04FBAF0BCBDE8004138
:1057C00022494FF000007047FFFDFBF9F7F5F4F2B6
:1057D000F0EEEDEBE9E8E6E4E3E1E0DEDDDBDAD88C
:1057E000D7D5D4D3D1D0CFCDCCCBCAC8C7C6C5C4EA
:1057F000C2C1C0BFBEBDBCBBBAB9B8B7B6B5B4B301
:10580000B2B1B0AFAEADACABAAA9A8A8A7A6A5A4EB
:10581000A3A3A2A1A09F9F9E9D9C9C9B9A999998AF
:105820009797969595949393929191908F8F8E8E52
:105830008D8C8C8B8B8A89898888878786858584DF
:1058400084838382828181800000FF070000F87FCB
:1058500051EA030C17D41CF5801F58BFBCF5801FFC
:1058600000F10680994218BF704708BF9042704708
:1058700007D711F5801F58BF13F5801F19D499421F
:105880007047894270471CF5801F08D5BCF5801F02
:10589000F7D58B4218BF704708BF824270474FF45C
:1058A000001C1CEB410F38BF1CEB430F01D28B4295
:1058B000704770B500F082F9922449004FF0005112
:1058C0004FF08053FFF760BE4FEA1153A3F580639A
:1058D000D3F11E03A8BFD3F1200C08DB4FF0004228
:1058E00042EAC12252EA505232FA03F070470942AA
:1058F0000BD4102BC4BF0020704703F5787CBCF19B
:10590000FF3F05D04FF0FF3070474FF00000704769
:1059100070B500F053F900BF499224800020704711
:10592000F0E710F0004248BF4042B0FA80F310FAAE
:1059300003F10AD0C3F11D0303F5806302EB0352A8
:105940004FEA415002EBD12170474FF00000704701
:10595000B0FA80F310FA03F10AD0C3F11D0303F586
:1059600080634FEA03524FEA415002EBD121704766
:105970004FF000007047000051EA030C17D41CF5EB
:10598000801F58BFBCF5801F00F10680994218BFE8
:10599000704708BF9042704707D711F5801F58BF66
:1059A00013F5801F19D499427047894270471CF53E
:1059B000801F08D5BCF5801FF7D58B4218BF7047F4
:1059C00008BF824270474FF4001C1CEB410F38BFE8
:1059D0001CEB430F01D28B42704770B500F0EEF81C
:1059E000922449004FF080514FF00053FFF7CCBD97
:1059F00051EA030C17D41CF5801F58BFBCF5801F5B
:105A000000F10680994218BF704708BF9042704766
:105A100007D711F5801F58BF13F5801F19D499427D
:105A20007047894270471CF5801F08D5BCF5801F60
:105A3000F7D58B4218BF704708BF824270474FF4BA
:105A4000001C1CEB410F38BF1CEB430F01D28B42F3
:105A5000704770B500F0B2F8922449004FF0005141
:105A60004FF08053FFF790BD70B5DFF848C11CEAD6
:105A7000111E1EBF1CEA13159EEA0C0F95EA0C0FAF
:105A800000F06F8081EA03044EEAD47EAE4421EA3E
:105A90004C1123EA4C1341F4801143F48013AEF10E
:105AA0007F7EA1FB024CA0FB0365361955EB0C056C
:105AB000A1FB034C4CF10003A0FB021C16EB0C06EF
:105AC000654153F10003094218BF46F0010613F483
:105AD000007F0BD14FEA03314FEA053041EA1551FF
